{"abi":[{"type":"constructor","inputs":[{"name":"_registratorAddress","type":"address","internalType":"address"},{"name":"_offRamperAddress","type":"address","internalType":"address"},{"name":"_peerFinderAddress","type":"address","internalType":"address"},{"name":"_onRamperAddress","type":"address","internalType":"address"}],"stateMutability":"nonpayable"},{"type":"function","name":"createOffRampIntentAndSendETH","inputs":[{"name":"user","type":"address","internalType":"address"},{"name":"amount","type":"uint256","internalType":"uint256"}],"outputs":[],"stateMutability":"payable"},{"type":"function","name":"getLongestQueuingOffRampIntentAddress","inputs":[],"outputs":[{"name":"","type":"address","internalType":"address"}],"stateMutability":"view"},{"type":"function","name":"getUserEmail","inputs":[{"name":"wallet","type":"address","internalType":"address"}],"outputs":[{"name":"","type":"string","internalType":"string"}],"stateMutability":"view"},{"type":"function","name":"isOffRamperQueueEmpty","inputs":[],"outputs":[{"name":"","type":"bool","internalType":"bool"}],"stateMutability":"view"},{"type":"function","name":"loginUserAccount","inputs":[{"name":"wallet","type":"address","internalType":"address"}],"outputs":[{"name":"","type":"bool","internalType":"bool"}],"stateMutability":"view"},{"type":"function","name":"numberOfOpenOffRampIntents","inputs":[],"outputs":[{"name":"","type":"uint256","internalType":"uint256"}],"stateMutability":"view"},{"type":"function","name":"offRamperContract","inputs":[],"outputs":[{"name":"","type":"address","internalType":"contract IOffRamper"}],"stateMutability":"view"},{"type":"function","name":"onRamp","inputs":[{"name":"amount","type":"uint256","internalType":"uint256"},{"name":"offRamper","type":"address","internalType":"address"},{"name":"transactionSenderEmail","type":"string","internalType":"string"},{"name":"transactionReceiverEmail","type":"string","internalType":"string"},{"name":"transactionAmount","type":"uint256","internalType":"uint256"}],"outputs":[],"stateMutability":"nonpayable"},{"type":"function","name":"onRamperContract","inputs":[],"outputs":[{"name":"","type":"address","internalType":"contract IOnRamper"}],"stateMutability":"view"},{"type":"function","name":"peerFinderContract","inputs":[],"outputs":[{"name":"","type":"address","internalType":"contract IPeerFinder"}],"stateMutability":"view"},{"type":"function","name":"queryEscrowBalance","inputs":[{"name":"user","type":"address","internalType":"address"}],"outputs":[{"name":"","type":"uint256","internalType":"uint256"}],"stateMutability":"view"},{"type":"function","name":"registerUserAccount","inputs":[{"name":"wallet","type":"address","internalType":"address"},{"name":"email","type":"string","internalType":"string"}],"outputs":[{"name":"","type":"bool","internalType":"bool"}],"stateMutability":"nonpayable"},{"type":"function","name":"registratorContract","inputs":[],"outputs":[{"name":"","type":"address","internalType":"contract IRegistrator"}],"stateMutability":"view"},{"type":"function","name":"releasePartialFundsToOnRamper","inputs":[{"name":"offRamper","type":"address","internalType":"address"},{"name":"onRamper","type":"address","internalType":"address"},{"name":"releaseAmount","type":"uint256","internalType":"uint256"}],"outputs":[],"stateMutability":"nonpayable"},{"type":"event","name":"GotOffRampersAddressInOrchestrator","inputs":[{"name":"offRamper","type":"address","indexed":false,"internalType":"address"}],"anonymous":false},{"type":"event","name":"OffRampIntentCreatedAndETHSent","inputs":[{"name":"user","type":"address","indexed":true,"internalType":"address"},{"name":"amount","type":"uint256","indexed":false,"internalType":"uint256"}],"anonymous":false},{"type":"event","name":"OffRampersIntentAddedInOrchestrator","inputs":[{"name":"offRamper","type":"address","indexed":false,"internalType":"address"}],"anonymous":false},{"type":"event","name":"OffRampersIntentReinsertedInOrchestrator","inputs":[{"name":"offRamper","type":"address","indexed":true,"internalType":"address"}],"anonymous":false},{"type":"event","name":"OnRampCompleted","inputs":[{"name":"offRamper","type":"address","indexed":true,"internalType":"address"},{"name":"onRamper","type":"address","indexed":true,"internalType":"address"},{"name":"amount","type":"uint256","indexed":false,"internalType":"uint256"}],"anonymous":false},{"type":"event","name":"OnRampCompletedInOrchestrator","inputs":[{"name":"offRamper","type":"address","indexed":true,"internalType":"address"},{"name":"onRamper","type":"address","indexed":true,"internalType":"address"},{"name":"amount","type":"uint256","indexed":false,"internalType":"uint256"}],"anonymous":false},{"type":"event","name":"OnRampFailed","inputs":[{"name":"offRamper","type":"address","indexed":true,"internalType":"address"},{"name":"onRamper","type":"address","indexed":true,"internalType":"address"},{"name":"amount","type":"uint256","indexed":false,"internalType":"uint256"}],"anonymous":false},{"type":"event","name":"OnRampFailedInOrchestrator","inputs":[{"name":"offRamper","type":"address","indexed":true,"internalType":"address"},{"name":"onRamper","type":"address","indexed":true,"internalType":"address"},{"name":"amount","type":"uint256","indexed":false,"internalType":"uint256"}],"anonymous":false},{"type":"event","name":"ReleasedPartialFundsToOnRamperInOrchestrator","inputs":[{"name":"offRamper","type":"address","indexed":true,"internalType":"address"},{"name":"onRamper","type":"address","indexed":true,"internalType":"address"},{"name":"releaseAmount","type":"uint256","indexed":false,"internalType":"uint256"}],"anonymous":false},{"type":"event","name":"UserRegisteredInOrchestrator","inputs":[{"name":"user","type":"address","indexed":true,"internalType":"address"},{"name":"success","type":"bool","indexed":false,"internalType":"bool"}],"anonymous":false}],"bytecode":{"object":"0x608060405234801561001057600080fd5b50604051620011de380380620011de833981016040819052610031916100a0565b600080546001600160a01b039586166001600160a01b03199182161790915560018054948616948216949094179093556002805492851692841692909217909155600380549190931691161790556100f4565b80516001600160a01b038116811461009b57600080fd5b919050565b600080600080608085870312156100b657600080fd5b6100bf85610084565b93506100cd60208601610084565b92506100db60408601610084565b91506100e960608601610084565b905092959194509250565b6110da80620001046000396000f3fe6080604052600436106100dd5760003560e01c8063783988411161007f5780639c7d9726116100595780639c7d97261461024b578063b25c05641461026b578063bf5dd70a1461028b578063c397a1211461029e57600080fd5b806378398841146101de5780638b3f3e6d146101fe5780639480e9481461021e57600080fd5b8063558d112e116100bb578063558d112e1461016457806358b1fca4146101845780635e12b628146101a75780636fd4f3d7146101c957600080fd5b806313297221146100e25780633b6997b1146101145780633d8d160114610134575b600080fd5b3480156100ee57600080fd5b506100f76102be565b6040516001600160a01b0390911681526020015b60405180910390f35b34801561012057600080fd5b506000546100f7906001600160a01b031681565b34801561014057600080fd5b5061015461014f366004610caf565b610331565b604051901515815260200161010b565b34801561017057600080fd5b506001546100f7906001600160a01b031681565b34801561019057600080fd5b506101996103f8565b60405190815260200161010b565b3480156101b357600080fd5b506101c76101c2366004610d04565b610466565b005b3480156101d557600080fd5b50610154610526565b3480156101ea57600080fd5b506002546100f7906001600160a01b031681565b34801561020a57600080fd5b50610154610219366004610d45565b610594565b34801561022a57600080fd5b5061023e610239366004610d45565b610609565b60405161010b9190610db9565b34801561025757600080fd5b50610199610266366004610d45565b61067c565b34801561027757600080fd5b506101c7610286366004610dcc565b6106eb565b6101c7610299366004610e61565b610a18565b3480156102aa57600080fd5b506003546100f7906001600160a01b031681565b600254604080516359e02dd760e01b815290516000926001600160a01b0316916359e02dd79160048083019260209291908290030181865afa158015610308573d6000803e3d6000fd5b505050506040513d601f19601f8201168201806040525081019061032c9190610e8d565b905090565b6000805460405163087f9c4160e11b815282916001600160a01b0316906310ff38829061036690889088908890600401610ed3565b6020604051808303816000875af1158015610385573d6000803e3d6000fd5b505050506040513d601f19601f820116820180604052508101906103a99190610f01565b9050846001600160a01b03167f33ed15e8fcd8365f5a81d1fe56e10b62e5ade28375b3a08186eb59ebc2747db4826040516103e8911515815260200190565b60405180910390a2949350505050565b6002546040805163949d225d60e01b815290516000926001600160a01b03169163949d225d9160048083019260209291908290030181865afa158015610442573d6000803e3d6000fd5b505050506040513d601f19601f8201168201806040525081019061032c9190610f23565b600154604051630bc256c560e31b81526001600160a01b03858116600483015284811660248301526044820184905290911690635e12b62890606401600060405180830381600087803b1580156104bc57600080fd5b505af11580156104d0573d6000803e3d6000fd5b50505050816001600160a01b0316836001600160a01b03167f1f956cf7ef20e22f475d005f9ab0094b04045c1f331ef8d2b443130e8466fada8360405161051991815260200190565b60405180910390a3505050565b60025460408051631a07f9c360e21b815290516000926001600160a01b03169163681fe70c9160048083019260209291908290030181865afa158015610570573d6000803e3d6000fd5b505050506040513d601f19601f8201168201806040525081019061032c9190610f01565b60008054604051631ad3430d60e11b81526001600160a01b038481166004830152909116906335a6861a90602401602060405180830381865afa1580156105df573d6000803e3d6000fd5b505050506040513d601f19601f820116820180604052508101906106039190610f01565b92915050565b6000546040516313e9cd4f60e21b81526001600160a01b0383811660048301526060921690634fa7353c90602401600060405180830381865afa158015610654573d6000803e3d6000fd5b505050506040513d6000823e601f3d908101601f191682016040526106039190810190610f52565b600154604051636374b11b60e01b81526001600160a01b0383811660048301526000921690636374b11b90602401602060405180830381865afa1580156106c7573d6000803e3d6000fd5b505050506040513d601f19601f820116820180604052508101906106039190610f23565b600080546040516313e9cd4f60e21b8152336004820181905292916001600160a01b031690634fa7353c90602401600060405180830381865afa158015610736573d6000803e3d6000fd5b505050506040513d6000823e601f3d908101601f1916820160405261075e9190810190610f52565b600080546040516313e9cd4f60e21b81526001600160a01b038c8116600483015293945091921690634fa7353c90602401600060405180830381865afa1580156107ac573d6000803e3d6000fd5b505050506040513d6000823e601f3d908101601f191682016040526107d49190810190610f52565b90506000600360009054906101000a90046001600160a01b03166001600160a01b031663aa4a1cce8c868d87878f8f8f8f8f6040518b63ffffffff1660e01b815260040161082b9a99989796959493929190610fff565b6020604051808303816000875af115801561084a573d6000803e3d6000fd5b505050506040513d601f19601f8201168201806040525081019061086e9190610f01565b905080156109bd57600254604051632eceb90360e21b81526001600160a01b038c811660048301529091169063bb3ae40c90602401600060405180830381600087803b1580156108bd57600080fd5b505af11580156108d1573d6000803e3d6000fd5b50505050600160009054906101000a90046001600160a01b03166001600160a01b0316635e12b6288b868e6040518463ffffffff1660e01b8152600401610939939291906001600160a01b039384168152919092166020820152604081019190915260600190565b600060405180830381600087803b15801561095357600080fd5b505af1158015610967573d6000803e3d6000fd5b50505050836001600160a01b03168a6001600160a01b03167f72c72fe126530a28969d8c9a1de53f94e67a78d2b485ab1747a7ef501981ce268d6040516109b091815260200190565b60405180910390a3610a0b565b836001600160a01b03168a6001600160a01b03167fdb184558b2ecee996d263d255508b229d5edf53e4b4298365c191d830222f58a8d604051610a0291815260200190565b60405180910390a35b5050505050505050505050565b803414610a635760405162461bcd60e51b8152602060048201526014602482015273125b98dbdc9c9958dd0811551208185b5bdd5b9d60621b60448201526064015b60405180910390fd5b6001546040516001600160a01b038481166024830152604482018490526000921690349060640160408051601f198184030181529181526020820180516001600160e01b031663d5a6c4d760e01b17905251610abf9190611088565b60006040518083038185875af1925050503d8060008114610afc576040519150601f19603f3d011682016040523d82523d6000602084013e610b01565b606091505b5050905080610b5e5760405162461bcd60e51b8152602060048201526024808201527f4661696c656420746f2073656e6420455448206f722063616c6c204f6666526160448201526336b832b960e11b6064820152608401610a5a565b610b6783610baf565b826001600160a01b03167f02367e4287401a6fa44844ecacf76d053e5137ea58c3fd2d3386ebd2c3c93b4283604051610ba291815260200190565b60405180910390a2505050565b6002546040516367f2393d60e01b81526001600160a01b038381166004830152909116906367f2393d90602401600060405180830381600087803b158015610bf657600080fd5b505af1158015610c0a573d6000803e3d6000fd5b50506040516001600160a01b03841681527f5ba73d516444feb5fda9a8609c08cc2bb8cdcec42538e960518632d4d65f6d719250602001905060405180910390a150565b6001600160a01b0381168114610c6357600080fd5b50565b60008083601f840112610c7857600080fd5b50813567ffffffffffffffff811115610c9057600080fd5b602083019150836020828501011115610ca857600080fd5b9250929050565b600080600060408486031215610cc457600080fd5b8335610ccf81610c4e565b9250602084013567ffffffffffffffff811115610ceb57600080fd5b610cf786828701610c66565b9497909650939450505050565b600080600060608486031215610d1957600080fd5b8335610d2481610c4e565b92506020840135610d3481610c4e565b929592945050506040919091013590565b600060208284031215610d5757600080fd5b8135610d6281610c4e565b9392505050565b60005b83811015610d84578181015183820152602001610d6c565b50506000910152565b60008151808452610da5816020860160208601610d69565b601f01601f19169290920160200192915050565b602081526000610d626020830184610d8d565b600080600080600080600060a0888a031215610de757600080fd5b873596506020880135610df981610c4e565b9550604088013567ffffffffffffffff80821115610e1657600080fd5b610e228b838c01610c66565b909750955060608a0135915080821115610e3b57600080fd5b50610e488a828b01610c66565b989b979a50959894979596608090950135949350505050565b60008060408385031215610e7457600080fd5b8235610e7f81610c4e565b946020939093013593505050565b600060208284031215610e9f57600080fd5b8151610d6281610c4e565b81835281816020850137506000828201602090810191909152601f909101601f19169091010190565b6001600160a01b0384168152604060208201819052600090610ef89083018486610eaa565b95945050505050565b600060208284031215610f1357600080fd5b81518015158114610d6257600080fd5b600060208284031215610f3557600080fd5b5051919050565b634e487b7160e01b600052604160045260246000fd5b600060208284031215610f6457600080fd5b815167ffffffffffffffff80821115610f7c57600080fd5b818401915084601f830112610f9057600080fd5b815181811115610fa257610fa2610f3c565b604051601f8201601f19908116603f01168101908382118183101715610fca57610fca610f3c565b81604052828152876020848701011115610fe357600080fd5b610ff4836020830160208801610d69565b979650505050505050565b8a81526001600160a01b038a8116602083015289166040820152610100606082018190526000906110328382018b610d8d565b90508281036080840152611046818a610d8d565b905082810360a084015261105b81888a610eaa565b905082810360c0840152611070818688610eaa565b9150508260e08301529b9a5050505050505050505050565b6000825161109a818460208701610d69565b919091019291505056fea2646970667358221220e2bacc2c24cae87f71686cbae9058b3f5063a055f6c3b1700f3a44ac0ea2f97364736f6c63430008180033","linkReferences":{}},"methodIdentifiers":{"createOffRampIntentAndSendETH(address,uint256)":"bf5dd70a","getLongestQueuingOffRampIntentAddress()":"13297221","getUserEmail(address)":"9480e948","isOffRamperQueueEmpty()":"6fd4f3d7","loginUserAccount(address)":"8b3f3e6d","numberOfOpenOffRampIntents()":"58b1fca4","offRamperContract()":"558d112e","onRamp(uint256,address,string,string,uint256)":"b25c0564","onRamperContract()":"c397a121","peerFinderContract()":"78398841","queryEscrowBalance(address)":"9c7d9726","registerUserAccount(address,string)":"3d8d1601","registratorContract()":"3b6997b1","releasePartialFundsToOnRamper(address,address,uint256)":"5e12b628"},"id":24}