{"abi":[{"type":"constructor","inputs":[{"name":"_registratorAddress","type":"address","internalType":"address"},{"name":"_offRamperAddress","type":"address","internalType":"address"},{"name":"_peerFinderAddress","type":"address","internalType":"address"}],"stateMutability":"nonpayable"},{"type":"function","name":"createOffRampIntentAndSendETH","inputs":[{"name":"user","type":"address","internalType":"address"},{"name":"amount","type":"uint256","internalType":"uint256"}],"outputs":[],"stateMutability":"payable"},{"type":"function","name":"getAndRemoveOffRampersIntentFromQueue","inputs":[],"outputs":[{"name":"","type":"address","internalType":"address"}],"stateMutability":"nonpayable"},{"type":"function","name":"getUserEmail","inputs":[{"name":"wallet","type":"address","internalType":"address"}],"outputs":[{"name":"","type":"string","internalType":"string"}],"stateMutability":"view"},{"type":"function","name":"isOffRamperQueueEmpty","inputs":[],"outputs":[{"name":"","type":"bool","internalType":"bool"}],"stateMutability":"view"},{"type":"function","name":"loginUserAccount","inputs":[{"name":"wallet","type":"address","internalType":"address"}],"outputs":[{"name":"","type":"bool","internalType":"bool"}],"stateMutability":"view"},{"type":"function","name":"numberOfOpenOffRampIntents","inputs":[],"outputs":[{"name":"","type":"uint256","internalType":"uint256"}],"stateMutability":"view"},{"type":"function","name":"offRamperContract","inputs":[],"outputs":[{"name":"","type":"address","internalType":"contract IOffRamper"}],"stateMutability":"view"},{"type":"function","name":"peekOffRamperQueue","inputs":[],"outputs":[{"name":"","type":"address","internalType":"address"}],"stateMutability":"view"},{"type":"function","name":"peerFinderContract","inputs":[],"outputs":[{"name":"","type":"address","internalType":"contract IPeerFinder"}],"stateMutability":"view"},{"type":"function","name":"queryEscrowBalance","inputs":[{"name":"user","type":"address","internalType":"address"}],"outputs":[{"name":"","type":"uint256","internalType":"uint256"}],"stateMutability":"view"},{"type":"function","name":"registerUserAccount","inputs":[{"name":"wallet","type":"address","internalType":"address"},{"name":"email","type":"string","internalType":"string"}],"outputs":[{"name":"","type":"bool","internalType":"bool"}],"stateMutability":"nonpayable"},{"type":"function","name":"registratorContract","inputs":[],"outputs":[{"name":"","type":"address","internalType":"contract IRegistrator"}],"stateMutability":"view"},{"type":"function","name":"reinsertOffRampIntentAfterFailedOnRamp","inputs":[{"name":"_address","type":"address","internalType":"address"}],"outputs":[],"stateMutability":"nonpayable"},{"type":"function","name":"releasePartialFundsToOnRamper","inputs":[{"name":"offRamper","type":"address","internalType":"address"},{"name":"onRamper","type":"address","internalType":"address"},{"name":"releaseAmount","type":"uint256","internalType":"uint256"}],"outputs":[],"stateMutability":"nonpayable"}],"bytecode":{"object":"0x608060405234801561001057600080fd5b50604051610c91380380610c9183398101604081905261002f9161008d565b600080546001600160a01b039485166001600160a01b0319918216179091556001805493851693821693909317909255600280549190931691161790556100d0565b80516001600160a01b038116811461008857600080fd5b919050565b6000806000606084860312156100a257600080fd5b6100ab84610071565b92506100b960208501610071565b91506100c760408501610071565b90509250925092565b610bb2806100df6000396000f3fe6080604052600436106100dd5760003560e01c80636fd4f3d71161007f5780639480e948116100595780639480e9481461023e5780639c7d97261461026b578063a15adfd21461028b578063bf5dd70a146102a057600080fd5b80636fd4f3d7146101e957806378398841146101fe5780638b3f3e6d1461021e57600080fd5b80633d8d1601116100bb5780633d8d160114610156578063558d112e1461018657806358b1fca4146101a65780635e12b628146101c957600080fd5b80631b5abc23146100e257806333ea25bd146101045780633b6997b114610136575b600080fd5b3480156100ee57600080fd5b506101026100fd366004610898565b6102b3565b005b34801561011057600080fd5b50610119610316565b6040516001600160a01b0390911681526020015b60405180910390f35b34801561014257600080fd5b50600054610119906001600160a01b031681565b34801561016257600080fd5b506101766101713660046108bc565b610389565b604051901515815260200161012d565b34801561019257600080fd5b50600154610119906001600160a01b031681565b3480156101b257600080fd5b506101bb610409565b60405190815260200161012d565b3480156101d557600080fd5b506101026101e4366004610941565b610477565b3480156101f557600080fd5b506101766104ea565b34801561020a57600080fd5b50600254610119906001600160a01b031681565b34801561022a57600080fd5b50610176610239366004610898565b610558565b34801561024a57600080fd5b5061025e610259366004610898565b6105cd565b60405161012d91906109a6565b34801561027757600080fd5b506101bb610286366004610898565b610640565b34801561029757600080fd5b506101196106af565b6101026102ae3660046109d9565b6106fa565b600254604051631b5abc2360e01b81526001600160a01b03838116600483015290911690631b5abc23906024015b600060405180830381600087803b1580156102fb57600080fd5b505af115801561030f573d6000803e3d6000fd5b5050505050565b600254604080516359e02dd760e01b815290516000926001600160a01b0316916359e02dd79160048083019260209291908290030181865afa158015610360573d6000803e3d6000fd5b505050506040513d601f19601f820116820180604052508101906103849190610a05565b905090565b6000805460405163087f9c4160e11b81526001600160a01b03909116906310ff3882906103be90879087908790600401610a22565b6020604051808303816000875af11580156103dd573d6000803e3d6000fd5b505050506040513d601f19601f820116820180604052508101906104019190610a62565b949350505050565b6002546040805163949d225d60e01b815290516000926001600160a01b03169163949d225d9160048083019260209291908290030181865afa158015610453573d6000803e3d6000fd5b505050506040513d601f19601f820116820180604052508101906103849190610a84565b600154604051630bc256c560e31b81526001600160a01b03858116600483015284811660248301526044820184905290911690635e12b62890606401600060405180830381600087803b1580156104cd57600080fd5b505af11580156104e1573d6000803e3d6000fd5b50505050505050565b60025460408051631a07f9c360e21b815290516000926001600160a01b03169163681fe70c9160048083019260209291908290030181865afa158015610534573d6000803e3d6000fd5b505050506040513d601f19601f820116820180604052508101906103849190610a62565b60008054604051631ad3430d60e11b81526001600160a01b038481166004830152909116906335a6861a90602401602060405180830381865afa1580156105a3573d6000803e3d6000fd5b505050506040513d601f19601f820116820180604052508101906105c79190610a62565b92915050565b6000546040516313e9cd4f60e21b81526001600160a01b0383811660048301526060921690634fa7353c90602401600060405180830381865afa158015610618573d6000803e3d6000fd5b505050506040513d6000823e601f3d908101601f191682016040526105c79190810190610ab3565b600154604051636374b11b60e01b81526001600160a01b0383811660048301526000921690636374b11b90602401602060405180830381865afa15801561068b573d6000803e3d6000fd5b505050506040513d601f19601f820116820180604052508101906105c79190610a84565b60025460408051632826e13960e21b815290516000926001600160a01b03169163a09b84e4916004808301926020929190829003018187875af1158015610360573d6000803e3d6000fd5b8034146107455760405162461bcd60e51b8152602060048201526014602482015273125b98dbdc9c9958dd0811551208185b5bdd5b9d60621b60448201526064015b60405180910390fd5b6001546040516001600160a01b038481166024830152604482018490526000921690349060640160408051601f198184030181529181526020820180516001600160e01b031663d5a6c4d760e01b179052516107a19190610b60565b60006040518083038185875af1925050503d80600081146107de576040519150601f19603f3d011682016040523d82523d6000602084013e6107e3565b606091505b50509050806108405760405162461bcd60e51b8152602060048201526024808201527f4661696c656420746f2073656e6420455448206f722063616c6c204f6666526160448201526336b832b960e11b606482015260840161073c565b6108498361084e565b505050565b6002546040516367f2393d60e01b81526001600160a01b038381166004830152909116906367f2393d906024016102e1565b6001600160a01b038116811461089557600080fd5b50565b6000602082840312156108aa57600080fd5b81356108b581610880565b9392505050565b6000806000604084860312156108d157600080fd5b83356108dc81610880565b9250602084013567ffffffffffffffff808211156108f957600080fd5b818601915086601f83011261090d57600080fd5b81358181111561091c57600080fd5b87602082850101111561092e57600080fd5b6020830194508093505050509250925092565b60008060006060848603121561095657600080fd5b833561096181610880565b9250602084013561097181610880565b929592945050506040919091013590565b60005b8381101561099d578181015183820152602001610985565b50506000910152565b60208152600082518060208401526109c5816040850160208701610982565b601f01601f19169190910160400192915050565b600080604083850312156109ec57600080fd5b82356109f781610880565b946020939093013593505050565b600060208284031215610a1757600080fd5b81516108b581610880565b6001600160a01b03841681526040602082018190528101829052818360608301376000818301606090810191909152601f909201601f1916010192915050565b600060208284031215610a7457600080fd5b815180151581146108b557600080fd5b600060208284031215610a9657600080fd5b5051919050565b634e487b7160e01b600052604160045260246000fd5b600060208284031215610ac557600080fd5b815167ffffffffffffffff80821115610add57600080fd5b818401915084601f830112610af157600080fd5b815181811115610b0357610b03610a9d565b604051601f8201601f19908116603f01168101908382118183101715610b2b57610b2b610a9d565b81604052828152876020848701011115610b4457600080fd5b610b55836020830160208801610982565b979650505050505050565b60008251610b72818460208701610982565b919091019291505056fea2646970667358221220449293877a945441288ede094844e6fd3516e017b1fe102242c84aefdc1e127164736f6c63430008180033","linkReferences":{}},"methodIdentifiers":{"createOffRampIntentAndSendETH(address,uint256)":"bf5dd70a","getAndRemoveOffRampersIntentFromQueue()":"a15adfd2","getUserEmail(address)":"9480e948","isOffRamperQueueEmpty()":"6fd4f3d7","loginUserAccount(address)":"8b3f3e6d","numberOfOpenOffRampIntents()":"58b1fca4","offRamperContract()":"558d112e","peekOffRamperQueue()":"33ea25bd","peerFinderContract()":"78398841","queryEscrowBalance(address)":"9c7d9726","registerUserAccount(address,string)":"3d8d1601","registratorContract()":"3b6997b1","reinsertOffRampIntentAfterFailedOnRamp(address)":"1b5abc23","releasePartialFundsToOnRamper(address,address,uint256)":"5e12b628"},"id":23}