{"abi":[{"type":"constructor","inputs":[{"name":"_registratorAddress","type":"address","internalType":"address"},{"name":"_offRamperAddress","type":"address","internalType":"address"},{"name":"_peerFinderAddress","type":"address","internalType":"address"},{"name":"_onRamperAddress","type":"address","internalType":"address"}],"stateMutability":"nonpayable"},{"type":"function","name":"createOffRampIntentAndSendETH","inputs":[{"name":"user","type":"address","internalType":"address"},{"name":"amount","type":"uint256","internalType":"uint256"}],"outputs":[],"stateMutability":"payable"},{"type":"function","name":"getAndRemoveOffRampersIntentFromQueue","inputs":[],"outputs":[{"name":"","type":"address","internalType":"address"}],"stateMutability":"nonpayable"},{"type":"function","name":"getUserEmail","inputs":[{"name":"wallet","type":"address","internalType":"address"}],"outputs":[{"name":"","type":"string","internalType":"string"}],"stateMutability":"view"},{"type":"function","name":"isOffRamperQueueEmpty","inputs":[],"outputs":[{"name":"","type":"bool","internalType":"bool"}],"stateMutability":"view"},{"type":"function","name":"loginUserAccount","inputs":[{"name":"wallet","type":"address","internalType":"address"}],"outputs":[{"name":"","type":"bool","internalType":"bool"}],"stateMutability":"view"},{"type":"function","name":"numberOfOpenOffRampIntents","inputs":[],"outputs":[{"name":"","type":"uint256","internalType":"uint256"}],"stateMutability":"view"},{"type":"function","name":"offRamperContract","inputs":[],"outputs":[{"name":"","type":"address","internalType":"contract IOffRamper"}],"stateMutability":"view"},{"type":"function","name":"onRamp","inputs":[{"name":"amount","type":"uint256","internalType":"uint256"},{"name":"offRamper","type":"address","internalType":"address"},{"name":"offRampersEmail","type":"string","internalType":"string"},{"name":"onRampersEmail","type":"string","internalType":"string"},{"name":"transactionSenderEmail","type":"string","internalType":"string"},{"name":"transactionReceiverEmail","type":"string","internalType":"string"},{"name":"transactionAmount","type":"uint256","internalType":"uint256"}],"outputs":[],"stateMutability":"nonpayable"},{"type":"function","name":"onRamperContract","inputs":[],"outputs":[{"name":"","type":"address","internalType":"contract IOnRamper"}],"stateMutability":"view"},{"type":"function","name":"peekOffRamperQueue","inputs":[],"outputs":[{"name":"","type":"address","internalType":"address"}],"stateMutability":"view"},{"type":"function","name":"peerFinderContract","inputs":[],"outputs":[{"name":"","type":"address","internalType":"contract IPeerFinder"}],"stateMutability":"view"},{"type":"function","name":"queryEscrowBalance","inputs":[{"name":"user","type":"address","internalType":"address"}],"outputs":[{"name":"","type":"uint256","internalType":"uint256"}],"stateMutability":"view"},{"type":"function","name":"registerUserAccount","inputs":[{"name":"wallet","type":"address","internalType":"address"},{"name":"email","type":"string","internalType":"string"}],"outputs":[{"name":"","type":"bool","internalType":"bool"}],"stateMutability":"nonpayable"},{"type":"function","name":"registratorContract","inputs":[],"outputs":[{"name":"","type":"address","internalType":"contract IRegistrator"}],"stateMutability":"view"},{"type":"function","name":"reinsertOffRampIntentAfterFailedOnRamp","inputs":[{"name":"_address","type":"address","internalType":"address"}],"outputs":[],"stateMutability":"nonpayable"},{"type":"function","name":"releasePartialFundsToOnRamper","inputs":[{"name":"offRamper","type":"address","internalType":"address"},{"name":"onRamper","type":"address","internalType":"address"},{"name":"releaseAmount","type":"uint256","internalType":"uint256"}],"outputs":[],"stateMutability":"nonpayable"},{"type":"event","name":"OnRampCompleted","inputs":[{"name":"offRamper","type":"address","indexed":true,"internalType":"address"},{"name":"onRamper","type":"address","indexed":true,"internalType":"address"},{"name":"amount","type":"uint256","indexed":false,"internalType":"uint256"}],"anonymous":false},{"type":"event","name":"OnRampFailed","inputs":[{"name":"offRamper","type":"address","indexed":true,"internalType":"address"},{"name":"onRamper","type":"address","indexed":true,"internalType":"address"},{"name":"amount","type":"uint256","indexed":false,"internalType":"uint256"}],"anonymous":false}],"bytecode":{"object":"0x6080346100b957601f610db538819003918201601f19168301916001600160401b038311848410176100be578084926080946040528339810103126100b957610047816100d4565b90610054602082016100d4565b61006c6060610065604085016100d4565b93016100d4565b9060018060a01b03928380928160018060a01b03199716876000541617600055168560015416176001551683600254161760025516906003541617600355604051610ccc90816100e98239f35b600080fd5b634e487b7160e01b600052604160045260246000fd5b51906001600160a01b03821682036100b95756fe60806040818152600436101561001457600080fd5b600091823560e01c9081631b5abc2314610aef5750806333ea25bd14610a815780633b6997b114610a5a5780633d8d1601146109bf578063558d112e1461099757806358b1fca414610908578281635e12b62814610888575080636fd4f3d71461083957806378398841146108115780638400bdd5146105755780638b3f3e6d146104dc5780639480e948146103c85780639c7d97261461032c57828163a15adfd21461029e57508063bf5dd70a146101015763c397a121146100d657600080fd5b346100fd57816003193601126100fd5760035490516001600160a01b039091168152602090f35b5080fd5b5090816003193601126101ea57610116610b59565b9160249081358034036102645760018060a01b0394856001541690835187602082019263d5a6c4d760e01b8452169384878301526044820152604481526080810181811067ffffffffffffffff82111761024f57855251869283929034905af13d1561024a573d61018681610c7a565b9061019385519283610c00565b81528560203d92013e5b156101fa57839460025416803b156101f65784938492845195869384926367f2393d60e01b845260048401525af19081156101ed57506101da5750f35b6101e390610bd6565b6101ea5780f35b80fd5b513d84823e3d90fd5b8480fd5b815162461bcd60e51b8152602060048201528084018490527f4661696c656420746f2073656e6420455448206f722063616c6c204f6666526160448201526336b832b960e11b6064820152608490fd5b61019d565b86634e487b7160e01b60005260416004526000fd5b815162461bcd60e51b81526020600482015260148185015273125b98dbdc9c9958dd0811551208185b5bdd5b9d60621b6044820152606490fd5b8083346103295781600319360112610329576002548151632826e13960e21b8152926001600160a01b0392916020918591600491839187165af192831561031f57602094936102f0575b505191168152f35b610311919350843d8611610318575b6103098183610c00565b810190610c22565b91846102e8565b503d6102ff565b81513d86823e3d90fd5b50fd5b5090346101ea57602091826003193601126100fd57610349610b59565b6001548251636374b11b60e01b81526001600160a01b03928316600482015291859183916024918391165afa9283156103bd5792610389575b5051908152f35b9091508281813d83116103b6575b6103a18183610c00565b810103126103b157519038610382565b600080fd5b503d610397565b8251903d90823e3d90fd5b50346100fd576020806003193601126104d8576103e3610b59565b835483516313e9cd4f60e21b81526001600160a01b03928316600482015291859183916024918391165afa9081156104cb57849161044c575b5061043e93508251938285938452825192818480938701528686019101610bb3565b601f01601f19168101030190f35b90503d8085833e61045d8183610c00565b81019082818303126101f65780519067ffffffffffffffff82116104c7570181601f820112156101f65780519461049386610c7a565b926104a086519485610c00565b8684528487840101116101ea575061043e946104c191848085019101610bb3565b3861041c565b8580fd5b50505051903d90823e3d90fd5b8280fd5b50346100fd5760203660031901126100fd576104f6610b59565b82548251631ad3430d60e11b81526001600160a01b039283166004820152929160209184916024918391165afa91821561056b576020939261053c575b50519015158152f35b61055d919250833d8511610564575b6105558183610c00565b810190610c41565b9038610533565b503d61054b565b81513d85823e3d90fd5b50346100fd5760e03660031901126100fd57600435610592610b6f565b9167ffffffffffffffff906044358281116104c7576105b5903690600401610b85565b929060643582811161080d576105cf903690600401610b85565b919092608435818111610809576105ea903690600401610b85565b60a4939193359283116108055789938993610609903690600401610b85565b929093600160a01b600190039a8b998a60035416998c519b8c9a8b9a6355250e6760e11b8c5260048c01523360248c01521660448a015260648901610100905261010489019061065892610c59565b9060031988830301608489015261066e92610c59565b906003198683030160a487015261068492610c59565b906003198483030160c485015261069a92610c59565b60c43560e48301520381895a94602095f19081156107fb5786916107dc575b501561075e57848260015416803b156100fd578251630bc256c560e31b81526001600160a01b0387166004820152336024820152604481018690529082908290606490829084905af1801561075457610740575b50507fa146aa06ebf4c3f1b0a47a1c48eaefd4d78b4bcb26e45f55f8b89ac687dd5892916020915193845233941692a380f35b61074990610bd6565b6101f657843861070d565b83513d84823e3d90fd5b848260025416803b156100fd578180916024855180948193631b5abc2360e01b8352898c1660048401525af18015610754576107c8575b50507f98fce1de07a80adba7dd19f2ac1ce5c206c2c00d2ff2256b932f881262e1d88e916020915193845233941692a380f35b6107d190610bd6565b6101f6578438610795565b6107f5915060203d602011610564576105558183610c00565b386106b9565b82513d88823e3d90fd5b8a80fd5b8980fd5b8780fd5b50346100fd57816003193601126100fd5760025490516001600160a01b039091168152602090f35b50346100fd57816003193601126100fd576002548151631a07f9c360e21b81529190602090839060049082906001600160a01b03165afa91821561056b576020939261053c5750519015158152f35b808334610329576060366003190112610329576108a3610b59565b906108ac610b6f565b6001546001600160a01b031692833b156101f6578251630bc256c560e31b81526001600160a01b0391821660048201529116602482015260448035908201529183908390606490829084905af19081156101ed57506101da5750f35b50346100fd57816003193601126100fd57600254815163949d225d60e01b8152929190602090849060049082906001600160a01b03165afa91821561098c5791610957575b6020925051908152f35b90506020823d602011610984575b8161097260209383610c00565b810103126103b157602091519061094d565b3d9150610965565b9051903d90823e3d90fd5b50346100fd57816003193601126100fd5760015490516001600160a01b039091168152602090f35b50346100fd57806003193601126100fd576109d8610b59565b9060243567ffffffffffffffff8111610a56576109fb6020913690600401610b85565b8554845163087f9c4160e11b81526001600160a01b03968716600482015260248101869052958693911691839188918391610a3a916044840191610c59565b03925af191821561056b576020939261053c5750519015158152f35b8380fd5b50346100fd57816003193601126100fd57905490516001600160a01b039091168152602090f35b50346100fd57816003193601126100fd5760025481516359e02dd760e01b8152916001600160a01b03916020908490600490829086165afa92831561031f5760209493610ad057505191168152f35b610ae8919350843d8611610318576103098183610c00565b91386102e8565b919050346104d85760203660031901126104d85782610b0c610b59565b6002546001600160a01b0390811690813b15610a5657836024928794928593631b5abc2360e01b85521660048401525af19081156101ed5750610b4d575080f35b610b5690610bd6565b80f35b600435906001600160a01b03821682036103b157565b602435906001600160a01b03821682036103b157565b9181601f840112156103b15782359167ffffffffffffffff83116103b157602083818601950101116103b157565b60005b838110610bc65750506000910152565b8181015183820152602001610bb6565b67ffffffffffffffff8111610bea57604052565b634e487b7160e01b600052604160045260246000fd5b90601f8019910116810190811067ffffffffffffffff821117610bea57604052565b908160209103126103b157516001600160a01b03811681036103b15790565b908160209103126103b1575180151581036103b15790565b908060209392818452848401376000828201840152601f01601f1916010190565b67ffffffffffffffff8111610bea57601f01601f19166020019056fea2646970667358221220ec27efed5c1d82e3ac270a3cee7b0b65cbae445d8c3e3894502308bb91f7f1a264736f6c63430008180033","linkReferences":{}},"methodIdentifiers":{"createOffRampIntentAndSendETH(address,uint256)":"bf5dd70a","getAndRemoveOffRampersIntentFromQueue()":"a15adfd2","getUserEmail(address)":"9480e948","isOffRamperQueueEmpty()":"6fd4f3d7","loginUserAccount(address)":"8b3f3e6d","numberOfOpenOffRampIntents()":"58b1fca4","offRamperContract()":"558d112e","onRamp(uint256,address,string,string,string,string,uint256)":"8400bdd5","onRamperContract()":"c397a121","peekOffRamperQueue()":"33ea25bd","peerFinderContract()":"78398841","queryEscrowBalance(address)":"9c7d9726","registerUserAccount(address,string)":"3d8d1601","registratorContract()":"3b6997b1","reinsertOffRampIntentAfterFailedOnRamp(address)":"1b5abc23","releasePartialFundsToOnRamper(address,address,uint256)":"5e12b628"},"id":24}