{"abi":[{"type":"constructor","inputs":[{"name":"_registratorAddress","type":"address","internalType":"address"},{"name":"_offRamperAddress","type":"address","internalType":"address"},{"name":"_peerFinderAddress","type":"address","internalType":"address"},{"name":"_onRamperAddress","type":"address","internalType":"address"}],"stateMutability":"nonpayable"},{"type":"function","name":"createOffRampIntentAndSendETH","inputs":[{"name":"user","type":"address","internalType":"address"},{"name":"amount","type":"uint256","internalType":"uint256"}],"outputs":[],"stateMutability":"payable"},{"type":"function","name":"getAndRemoveOffRampersIntentFromQueue","inputs":[],"outputs":[{"name":"","type":"address","internalType":"address"}],"stateMutability":"nonpayable"},{"type":"function","name":"getUserEmail","inputs":[{"name":"wallet","type":"address","internalType":"address"}],"outputs":[{"name":"","type":"string","internalType":"string"}],"stateMutability":"view"},{"type":"function","name":"isOffRamperQueueEmpty","inputs":[],"outputs":[{"name":"","type":"bool","internalType":"bool"}],"stateMutability":"view"},{"type":"function","name":"loginUserAccount","inputs":[{"name":"wallet","type":"address","internalType":"address"}],"outputs":[{"name":"","type":"bool","internalType":"bool"}],"stateMutability":"view"},{"type":"function","name":"numberOfOpenOffRampIntents","inputs":[],"outputs":[{"name":"","type":"uint256","internalType":"uint256"}],"stateMutability":"view"},{"type":"function","name":"offRamperContract","inputs":[],"outputs":[{"name":"","type":"address","internalType":"contract IOffRamper"}],"stateMutability":"view"},{"type":"function","name":"onRamp","inputs":[{"name":"amount","type":"uint256","internalType":"uint256"},{"name":"offRamper","type":"address","internalType":"address"},{"name":"transactionSenderEmail","type":"string","internalType":"string"},{"name":"transactionReceiverEmail","type":"string","internalType":"string"},{"name":"transactionAmount","type":"uint256","internalType":"uint256"}],"outputs":[],"stateMutability":"nonpayable"},{"type":"function","name":"onRamperContract","inputs":[],"outputs":[{"name":"","type":"address","internalType":"contract IOnRamper"}],"stateMutability":"view"},{"type":"function","name":"peekOffRamperQueue","inputs":[],"outputs":[{"name":"","type":"address","internalType":"address"}],"stateMutability":"view"},{"type":"function","name":"peerFinderContract","inputs":[],"outputs":[{"name":"","type":"address","internalType":"contract IPeerFinder"}],"stateMutability":"view"},{"type":"function","name":"queryEscrowBalance","inputs":[{"name":"user","type":"address","internalType":"address"}],"outputs":[{"name":"","type":"uint256","internalType":"uint256"}],"stateMutability":"view"},{"type":"function","name":"registerUserAccount","inputs":[{"name":"wallet","type":"address","internalType":"address"},{"name":"email","type":"string","internalType":"string"}],"outputs":[{"name":"","type":"bool","internalType":"bool"}],"stateMutability":"nonpayable"},{"type":"function","name":"registratorContract","inputs":[],"outputs":[{"name":"","type":"address","internalType":"contract IRegistrator"}],"stateMutability":"view"},{"type":"function","name":"reinsertOffRampIntentAfterFailedOnRamp","inputs":[{"name":"_address","type":"address","internalType":"address"}],"outputs":[],"stateMutability":"nonpayable"},{"type":"function","name":"releasePartialFundsToOnRamper","inputs":[{"name":"offRamper","type":"address","internalType":"address"},{"name":"onRamper","type":"address","internalType":"address"},{"name":"releaseAmount","type":"uint256","internalType":"uint256"}],"outputs":[],"stateMutability":"nonpayable"},{"type":"event","name":"OnRampCompleted","inputs":[{"name":"offRamper","type":"address","indexed":true,"internalType":"address"},{"name":"onRamper","type":"address","indexed":true,"internalType":"address"},{"name":"amount","type":"uint256","indexed":false,"internalType":"uint256"}],"anonymous":false},{"type":"event","name":"OnRampFailed","inputs":[{"name":"offRamper","type":"address","indexed":true,"internalType":"address"},{"name":"onRamper","type":"address","indexed":true,"internalType":"address"},{"name":"amount","type":"uint256","indexed":false,"internalType":"uint256"}],"anonymous":false}],"bytecode":{"object":"0x6080346100b957601f610e1638819003918201601f19168301916001600160401b038311848410176100be578084926080946040528339810103126100b957610047816100d4565b90610054602082016100d4565b61006c6060610065604085016100d4565b93016100d4565b9060018060a01b03928380928160018060a01b03199716876000541617600055168560015416176001551683600254161760025516906003541617600355604051610d2d90816100e98239f35b600080fd5b634e487b7160e01b600052604160045260246000fd5b51906001600160a01b03821682036100b95756fe608060408181526004918236101561001657600080fd5b600092833560e01c918483631b5abc2314610ac9575050816333ea25bd14610a5b5781633b6997b114610a335781633d8d16011461099f578163558d112e1461097657816358b1fca4146108ea578382635e12b62814610862575081636fd4f3d71461081457816378398841146107eb5781638b3f3e6d1461076b5781639480e948146106d35781639c7d97261461063757838263a15adfd2146105ab57508163b25c05641461029e578163bf5dd70a14610106575063c397a121146100db57600080fd5b3461010257816003193601126101025760035490516001600160a01b039091168152602090f35b5080fd5b839150826003193601126101025761011c610b33565b9260249182358034036102655760018060a01b0395866001541690845188602082019263d5a6c4d760e01b8452169384888301526044820152604481526080810181811067ffffffffffffffff82111761025157865251879283929034905af13d1561024c573d61018c81610c79565b9061019986519283610bff565b81528660203d92013e5b156101fe5784956002541693843b156101fa57859283855196879485936367f2393d60e01b85528401525af19081156101f157506101de5750f35b6101e790610bd5565b6101ee5780f35b80fd5b513d84823e3d90fd5b8580fd5b50826020608493519262461bcd60e51b8452830152808201527f4661696c656420746f2073656e6420455448206f722063616c6c204f6666526160448201526336b832b960e11b6064820152fd5b6101a3565b87604187634e487b7160e01b600052526000fd5b506014836020606494519362461bcd60e51b855284015282015273125b98dbdc9c9958dd0811551208185b5bdd5b9d60621b6044820152fd5b91905034610521576003199060a03683011261049c57838335936102c0610b49565b9067ffffffffffffffff6044358181116105a7576102e19036908401610b5f565b9690916064359081116101fa576102fb9036908501610b5f565b60018060a09493941b039384885416998a8a518a816024816313e9cd4f60e21b958682528d33908301525afa908115610583578b9161058d575b508b519182528a82898c169e8f8c830152815a91602492fa91821561058357938d97938f9692938e98948c978f809361055e575b50508b6003541699519a8b998a996355250e6760e11b8b528a01523360248a0152604489015260648801610100905261010488016103a691610bb0565b858882030160848901526103b991610bb0565b90848783030160a48801526103cd92610c58565b918483030160c48501526103e092610c58565b60843560e48301520381885a94602095f1908115610554578591610525575b50156104aa576001541691823b1561049c578451630bc256c560e31b81526001600160a01b039091169181019182523360208301526040820187905291839183919082908490829060600103925af180156104a057610488575b5050519182527fa146aa06ebf4c3f1b0a47a1c48eaefd4d78b4bcb26e45f55f8b89ac687dd589260203393a380f35b61049190610bd5565b61049c578338610459565b8380fd5b83513d84823e3d90fd5b600254169150813b156105215784602484928387519586948593631b5abc2360e01b85528401525af180156104a05761050d575b5050519182527f98fce1de07a80adba7dd19f2ac1ce5c206c2c00d2ff2256b932f881262e1d88e60203393a380f35b61051690610bd5565b61049c5783386104de565b8280fd5b610547915060203d60201161054d575b61053f8183610bff565b810190610c40565b386103ff565b503d610535565b86513d87823e3d90fd5b61057b9293503d8091833e6105738183610bff565b810190610c95565b90388f610369565b8c513d8d823e3d90fd5b6105a191503d808d833e6105738183610bff565b38610335565b8480fd5b809184346106335782600319360112610633576002548151632826e13960e21b8152936001600160a01b03936020928692839187165af192831561062957602094936105fa575b505191168152f35b61061b919350843d8611610622575b6106138183610bff565b810190610c21565b91846105f2565b503d610609565b81513d86823e3d90fd5b5050fd5b83833461010257602092836003193601126105215783610655610b33565b6001548451636374b11b60e01b81526001600160a01b039283169481019490945283916024918391165afa9283156106c85792610694575b5051908152f35b9091508281813d83116106c1575b6106ac8183610bff565b810103126106bc5751908361068d565b600080fd5b503d6106a2565b8251903d90823e3d90fd5b9190503461052157602036600319011261052157826106f0610b33565b815483516313e9cd4f60e21b81526001600160a01b039283169581019590955284916024918391165afa91821561076157836107409493610744575b505051918291602083526020830190610bb0565b0390f35b6107599293503d8091833e6105738183610bff565b90388061072c565b81513d85823e3d90fd5b91905034610521576020366003190112610521576020610789610b33565b84548351631ad3430d60e11b81526001600160a01b039283169581019590955284916024918391165afa91821561076157602093926107cc575b50519015158152f35b6107e4919250833d851161054d5761053f8183610bff565b90386107c3565b50503461010257816003193601126101025760025490516001600160a01b039091168152602090f35b919050346105215782600319360112610521576002548151631a07f9c360e21b81529260209184919082906001600160a01b03165afa91821561076157602093926107cc5750519015158152f35b809184346106335760603660031901126106335761087e610b33565b610886610b49565b6001549093906001600160a01b0316803b156101fa578351630bc256c560e31b81526001600160a01b0393841692810192835294909216602082015260443560408201528491849182908490829060600103925af19081156101f157506101de5750f35b838334610102578160031936011261010257600254815163949d225d60e01b81529360209185919082906001600160a01b03165afa91821561096b5791610936575b6020925051908152f35b90506020823d602011610963575b8161095160209383610bff565b810103126106bc57602091519061092c565b3d9150610944565b9051903d90823e3d90fd5b50503461010257816003193601126101025760015490516001600160a01b039091168152602090f35b919050346105215780600319360112610521576109ba610b33565b916024359067ffffffffffffffff82116105a7576109dd60209236908301610b5f565b948660018060a01b0391610a1783835416948851998a978896879563087f9c4160e11b875216908501528960248501526044840191610c58565b03925af191821561076157602093926107cc5750519015158152f35b505034610102578160031936011261010257905490516001600160a01b039091168152602090f35b9190503461052157826003193601126105215760025481516359e02dd760e01b8152926001600160a01b0392916020918591829086165afa9283156106295760209493610aaa57505191168152f35b610ac2919350843d8611610622576106138183610bff565b91386105f2565b918285913461010257602036600319011261010257610ae6610b33565b6002546001600160a01b039081169291833b156105a757631b5abc2360e01b875216908501528390602490829084905af19081156101f15750610b27575080f35b610b3090610bd5565b80f35b600435906001600160a01b03821682036106bc57565b602435906001600160a01b03821682036106bc57565b9181601f840112156106bc5782359167ffffffffffffffff83116106bc57602083818601950101116106bc57565b60005b838110610ba05750506000910152565b8181015183820152602001610b90565b90602091610bc981518092818552858086019101610b8d565b601f01601f1916010190565b67ffffffffffffffff8111610be957604052565b634e487b7160e01b600052604160045260246000fd5b90601f8019910116810190811067ffffffffffffffff821117610be957604052565b908160209103126106bc57516001600160a01b03811681036106bc5790565b908160209103126106bc575180151581036106bc5790565b908060209392818452848401376000828201840152601f01601f1916010190565b67ffffffffffffffff8111610be957601f01601f191660200190565b6020818303126106bc5780519067ffffffffffffffff82116106bc570181601f820112156106bc578051610cc881610c79565b92610cd66040519485610bff565b818452602082840101116106bc57610cf49160208085019101610b8d565b9056fea2646970667358221220ba4bc52897c1c695864131a81ed6c78a7f610c9ccef13165b878ce4722a25da964736f6c63430008180033","linkReferences":{}},"methodIdentifiers":{"createOffRampIntentAndSendETH(address,uint256)":"bf5dd70a","getAndRemoveOffRampersIntentFromQueue()":"a15adfd2","getUserEmail(address)":"9480e948","isOffRamperQueueEmpty()":"6fd4f3d7","loginUserAccount(address)":"8b3f3e6d","numberOfOpenOffRampIntents()":"58b1fca4","offRamperContract()":"558d112e","onRamp(uint256,address,string,string,uint256)":"b25c0564","onRamperContract()":"c397a121","peekOffRamperQueue()":"33ea25bd","peerFinderContract()":"78398841","queryEscrowBalance(address)":"9c7d9726","registerUserAccount(address,string)":"3d8d1601","registratorContract()":"3b6997b1","reinsertOffRampIntentAfterFailedOnRamp(address)":"1b5abc23","releasePartialFundsToOnRamper(address,address,uint256)":"5e12b628"},"id":24}