{"abi":[{"type":"constructor","inputs":[{"name":"_registratorAddress","type":"address","internalType":"address"},{"name":"_offRamperAddress","type":"address","internalType":"address"}],"stateMutability":"nonpayable"},{"type":"function","name":"decreaseOffRampIntentAfterTransaction","inputs":[{"name":"wallet","type":"address","internalType":"address"},{"name":"amount","type":"uint16","internalType":"uint16"}],"outputs":[{"name":"","type":"bool","internalType":"bool"}],"stateMutability":"nonpayable"},{"type":"function","name":"getOpenOffRampIntent","inputs":[{"name":"wallet","type":"address","internalType":"address"}],"outputs":[{"name":"","type":"uint16","internalType":"uint16"}],"stateMutability":"view"},{"type":"function","name":"getUserEmail","inputs":[{"name":"wallet","type":"address","internalType":"address"}],"outputs":[{"name":"","type":"string","internalType":"string"}],"stateMutability":"view"},{"type":"function","name":"loginUserAccount","inputs":[{"name":"wallet","type":"address","internalType":"address"}],"outputs":[{"name":"","type":"bool","internalType":"bool"}],"stateMutability":"view"},{"type":"function","name":"newOffRampIntent","inputs":[{"name":"wallet","type":"address","internalType":"address"},{"name":"amount","type":"uint16","internalType":"uint16"}],"outputs":[{"name":"","type":"bool","internalType":"bool"}],"stateMutability":"nonpayable"},{"type":"function","name":"offRamper","inputs":[],"outputs":[{"name":"","type":"address","internalType":"contract IOffRamper"}],"stateMutability":"view"},{"type":"function","name":"registerUserAccount","inputs":[{"name":"wallet","type":"address","internalType":"address"},{"name":"email","type":"string","internalType":"string"}],"outputs":[{"name":"","type":"bool","internalType":"bool"}],"stateMutability":"nonpayable"},{"type":"function","name":"registrator","inputs":[],"outputs":[{"name":"","type":"address","internalType":"contract IRegistrator"}],"stateMutability":"view"}],"bytecode":{"object":"0x608060405234801561001057600080fd5b5060405161079a38038061079a83398101604081905261002f9161007c565b600080546001600160a01b039384166001600160a01b031991821617909155600180549290931691161790556100af565b80516001600160a01b038116811461007757600080fd5b919050565b6000806040838503121561008f57600080fd5b61009883610060565b91506100a660208401610060565b90509250929050565b6106dc806100be6000396000f3fe608060405234801561001057600080fd5b50600436106100885760003560e01c80638b3f3e6d1161005b5780638b3f3e6d146101195780639480e9481461012c578063bf4716471461014c578063c6ed20c51461015f57600080fd5b8063201fcc271461008d5780633d8d1601146100bd57806377355efb146100e057806385bfe367146100f3575b600080fd5b6001546100a0906001600160a01b031681565b6040516001600160a01b0390911681526020015b60405180910390f35b6100d06100cb366004610425565b610172565b60405190151581526020016100b4565b6100d06100ee3660046104bb565b6101f2565b6101066101013660046104f2565b610275565b60405161ffff90911681526020016100b4565b6100d06101273660046104f2565b6102ea565b61013f61013a3660046104f2565b610359565b6040516100b49190610531565b6100d061015a3660046104bb565b6103cc565b6000546100a0906001600160a01b031681565b6000805460405163087f9c4160e11b81526001600160a01b03909116906310ff3882906101a790879087908790600401610564565b6020604051808303816000875af11580156101c6573d6000803e3d6000fd5b505050506040513d601f19601f820116820180604052508101906101ea91906105a4565b949350505050565b6001546040516377355efb60e01b81526001600160a01b03848116600483015261ffff8416602483015260009216906377355efb906044015b6020604051808303816000875af115801561024a573d6000803e3d6000fd5b505050506040513d601f19601f8201168201806040525081019061026e91906105a4565b9392505050565b6001546040516385bfe36760e01b81526001600160a01b03838116600483015260009216906385bfe36790602401602060405180830381865afa1580156102c0573d6000803e3d6000fd5b505050506040513d601f19601f820116820180604052508101906102e491906105c6565b92915050565b60008054604051631ad3430d60e11b81526001600160a01b038481166004830152909116906335a6861a90602401602060405180830381865afa158015610335573d6000803e3d6000fd5b505050506040513d601f19601f820116820180604052508101906102e491906105a4565b6000546040516313e9cd4f60e21b81526001600160a01b0383811660048301526060921690634fa7353c90602401600060405180830381865afa1580156103a4573d6000803e3d6000fd5b505050506040513d6000823e601f3d908101601f191682016040526102e491908101906105f9565b60015460405163bf47164760e01b81526001600160a01b03848116600483015261ffff84166024830152600092169063bf4716479060440161022b565b80356001600160a01b038116811461042057600080fd5b919050565b60008060006040848603121561043a57600080fd5b61044384610409565b9250602084013567ffffffffffffffff8082111561046057600080fd5b818601915086601f83011261047457600080fd5b81358181111561048357600080fd5b87602082850101111561049557600080fd5b6020830194508093505050509250925092565b61ffff811681146104b857600080fd5b50565b600080604083850312156104ce57600080fd5b6104d783610409565b915060208301356104e7816104a8565b809150509250929050565b60006020828403121561050457600080fd5b61026e82610409565b60005b83811015610528578181015183820152602001610510565b50506000910152565b602081526000825180602084015261055081604085016020870161050d565b601f01601f19169190910160400192915050565b6001600160a01b03841681526040602082018190528101829052818360608301376000818301606090810191909152601f909201601f1916010192915050565b6000602082840312156105b657600080fd5b8151801515811461026e57600080fd5b6000602082840312156105d857600080fd5b815161026e816104a8565b634e487b7160e01b600052604160045260246000fd5b60006020828403121561060b57600080fd5b815167ffffffffffffffff8082111561062357600080fd5b818401915084601f83011261063757600080fd5b815181811115610649576106496105e3565b604051601f8201601f19908116603f01168101908382118183101715610671576106716105e3565b8160405282815287602084870101111561068a57600080fd5b61069b83602083016020880161050d565b97965050505050505056fea2646970667358221220f24952502023e0a1452314a003cad7e1823ce6876b52962dde5a0907ff1d93db64736f6c63430008180033","linkReferences":{}},"methodIdentifiers":{"decreaseOffRampIntentAfterTransaction(address,uint16)":"77355efb","getOpenOffRampIntent(address)":"85bfe367","getUserEmail(address)":"9480e948","loginUserAccount(address)":"8b3f3e6d","newOffRampIntent(address,uint16)":"bf471647","offRamper()":"201fcc27","registerUserAccount(address,string)":"3d8d1601","registrator()":"c6ed20c5"},"id":1}