{"abi":[{"type":"constructor","inputs":[{"name":"_registratorAddress","type":"address","internalType":"address"},{"name":"_offRamperAddress","type":"address","internalType":"address"},{"name":"_peerFinderAddress","type":"address","internalType":"address"}],"stateMutability":"nonpayable"},{"type":"function","name":"createOffRampIntentAndSendETH","inputs":[{"name":"user","type":"address","internalType":"address"},{"name":"amount","type":"uint256","internalType":"uint256"}],"outputs":[],"stateMutability":"payable"},{"type":"function","name":"getAndRemoveOffRampersIntentFromQueue","inputs":[],"outputs":[{"name":"","type":"address","internalType":"address"}],"stateMutability":"nonpayable"},{"type":"function","name":"getUserEmail","inputs":[{"name":"wallet","type":"address","internalType":"address"}],"outputs":[{"name":"","type":"string","internalType":"string"}],"stateMutability":"view"},{"type":"function","name":"isOffRamperQueueEmpty","inputs":[],"outputs":[{"name":"","type":"bool","internalType":"bool"}],"stateMutability":"view"},{"type":"function","name":"loginUserAccount","inputs":[{"name":"wallet","type":"address","internalType":"address"}],"outputs":[{"name":"","type":"bool","internalType":"bool"}],"stateMutability":"view"},{"type":"function","name":"numberOfOpenOffRampIntents","inputs":[],"outputs":[{"name":"","type":"uint256","internalType":"uint256"}],"stateMutability":"view"},{"type":"function","name":"offRamperContract","inputs":[],"outputs":[{"name":"","type":"address","internalType":"contract IOffRamper"}],"stateMutability":"view"},{"type":"function","name":"peekOffRamperQueue","inputs":[],"outputs":[{"name":"","type":"address","internalType":"address"}],"stateMutability":"view"},{"type":"function","name":"peerFinderContract","inputs":[],"outputs":[{"name":"","type":"address","internalType":"contract IPeerFinder"}],"stateMutability":"view"},{"type":"function","name":"queryEscrowBalance","inputs":[{"name":"user","type":"address","internalType":"address"}],"outputs":[{"name":"","type":"uint256","internalType":"uint256"}],"stateMutability":"view"},{"type":"function","name":"registerUserAccount","inputs":[{"name":"wallet","type":"address","internalType":"address"},{"name":"email","type":"string","internalType":"string"}],"outputs":[{"name":"","type":"bool","internalType":"bool"}],"stateMutability":"nonpayable"},{"type":"function","name":"registratorContract","inputs":[],"outputs":[{"name":"","type":"address","internalType":"contract IRegistrator"}],"stateMutability":"view"},{"type":"function","name":"reinsertOffRampIntentAfterFailedOnRamp","inputs":[{"name":"_address","type":"address","internalType":"address"}],"outputs":[],"stateMutability":"nonpayable"},{"type":"function","name":"releasePartialFunds","inputs":[{"name":"offRamper","type":"address","internalType":"address"},{"name":"onRamper","type":"address","internalType":"address"},{"name":"releaseAmount","type":"uint256","internalType":"uint256"},{"name":"intentIndex","type":"uint256","internalType":"uint256"}],"outputs":[],"stateMutability":"nonpayable"}],"bytecode":{"object":"0x608060405234801561001057600080fd5b50604051610d7e380380610d7e83398101604081905261002f9161008d565b600080546001600160a01b039485166001600160a01b0319918216179091556001805493851693821693909317909255600280549190931691161790556100d0565b80516001600160a01b038116811461008857600080fd5b919050565b6000806000606084860312156100a257600080fd5b6100ab84610071565b92506100b960208501610071565b91506100c760408501610071565b90509250925092565b610c9f806100df6000396000f3fe6080604052600436106100dd5760003560e01c8063783988411161007f57806396421a881161005957806396421a881461024b5780639c7d97261461026b578063a15adfd21461028b578063bf5dd70a146102a057600080fd5b806378398841146101de5780638b3f3e6d146101fe5780639480e9481461021e57600080fd5b80633d8d1601116100bb5780633d8d160114610156578063558d112e1461018657806358b1fca4146101a65780636fd4f3d7146101c957600080fd5b80631b5abc23146100e257806333ea25bd146101045780633b6997b114610136575b600080fd5b3480156100ee57600080fd5b506101026100fd36600461092c565b6102b3565b005b34801561011057600080fd5b50610119610316565b6040516001600160a01b0390911681526020015b60405180910390f35b34801561014257600080fd5b50600054610119906001600160a01b031681565b34801561016257600080fd5b50610176610171366004610950565b610389565b604051901515815260200161012d565b34801561019257600080fd5b50600154610119906001600160a01b031681565b3480156101b257600080fd5b506101bb610409565b60405190815260200161012d565b3480156101d557600080fd5b50610176610477565b3480156101ea57600080fd5b50600254610119906001600160a01b031681565b34801561020a57600080fd5b5061017661021936600461092c565b6104e5565b34801561022a57600080fd5b5061023e61023936600461092c565b61055a565b60405161012d9190610a25565b34801561025757600080fd5b50610102610266366004610a38565b6105cd565b34801561027757600080fd5b506101bb61028636600461092c565b610648565b34801561029757600080fd5b506101196106b7565b6101026102ae366004610a7e565b610702565b600254604051631b5abc2360e01b81526001600160a01b03838116600483015290911690631b5abc23906024015b600060405180830381600087803b1580156102fb57600080fd5b505af115801561030f573d6000803e3d6000fd5b5050505050565b600254604080516359e02dd760e01b815290516000926001600160a01b0316916359e02dd79160048083019260209291908290030181865afa158015610360573d6000803e3d6000fd5b505050506040513d601f19601f820116820180604052508101906103849190610aaa565b905090565b6000805460405163087f9c4160e11b81526001600160a01b03909116906310ff3882906103be90879087908790600401610ac7565b6020604051808303816000875af11580156103dd573d6000803e3d6000fd5b505050506040513d601f19601f820116820180604052508101906104019190610b07565b949350505050565b6002546040805163949d225d60e01b815290516000926001600160a01b03169163949d225d9160048083019260209291908290030181865afa158015610453573d6000803e3d6000fd5b505050506040513d601f19601f820116820180604052508101906103849190610b29565b60025460408051631a07f9c360e21b815290516000926001600160a01b03169163681fe70c9160048083019260209291908290030181865afa1580156104c1573d6000803e3d6000fd5b505050506040513d601f19601f820116820180604052508101906103849190610b07565b60008054604051631ad3430d60e11b81526001600160a01b038481166004830152909116906335a6861a90602401602060405180830381865afa158015610530573d6000803e3d6000fd5b505050506040513d601f19601f820116820180604052508101906105549190610b07565b92915050565b6000546040516313e9cd4f60e21b81526001600160a01b0383811660048301526060921690634fa7353c90602401600060405180830381865afa1580156105a5573d6000803e3d6000fd5b505050506040513d6000823e601f3d908101601f191682016040526105549190810190610b58565b60015460405163748807ef60e01b81526001600160a01b038681166004830152858116602483015260448201859052606482018490529091169063748807ef90608401600060405180830381600087803b15801561062a57600080fd5b505af115801561063e573d6000803e3d6000fd5b5050505050505050565b600154604051636374b11b60e01b81526001600160a01b0383811660048301526000921690636374b11b90602401602060405180830381865afa158015610693573d6000803e3d6000fd5b505050506040513d601f19601f820116820180604052508101906105549190610b29565b60025460408051632826e13960e21b815290516000926001600160a01b03169163a09b84e4916004808301926020929190829003018187875af1158015610360573d6000803e3d6000fd5b80341461074d5760405162461bcd60e51b8152602060048201526014602482015273125b98dbdc9c9958dd0811551208185b5bdd5b9d60621b60448201526064015b60405180910390fd5b6001546040516001600160a01b038481166024830152604482018490526000921690349060640160408051601f198184030181529181526020820180516001600160e01b031663d5a6c4d760e01b179052516107a99190610c05565b60006040518083038185875af1925050503d80600081146107e6576040519150601f19603f3d011682016040523d82523d6000602084013e6107eb565b606091505b50509050610811604051806060016040528060248152602001610c466024913982610878565b8061086a5760405162461bcd60e51b8152602060048201526024808201527f4661696c656420746f2073656e6420455448206f722063616c6c204f6666526160448201526336b832b960e11b6064820152608401610744565b610873836108c1565b505050565b6108bd828260405160240161088e929190610c21565b60408051601f198184030181529190526020810180516001600160e01b031663c3b5563560e01b1790526108f3565b5050565b6002546040516367f2393d60e01b81526001600160a01b038381166004830152909116906367f2393d906024016102e1565b80516a636f6e736f6c652e6c6f67602083016000808483855afa5050505050565b6001600160a01b038116811461092957600080fd5b50565b60006020828403121561093e57600080fd5b813561094981610914565b9392505050565b60008060006040848603121561096557600080fd5b833561097081610914565b9250602084013567ffffffffffffffff8082111561098d57600080fd5b818601915086601f8301126109a157600080fd5b8135818111156109b057600080fd5b8760208285010111156109c257600080fd5b6020830194508093505050509250925092565b60005b838110156109f05781810151838201526020016109d8565b50506000910152565b60008151808452610a118160208601602086016109d5565b601f01601f19169290920160200192915050565b60208152600061094960208301846109f9565b60008060008060808587031215610a4e57600080fd5b8435610a5981610914565b93506020850135610a6981610914565b93969395505050506040820135916060013590565b60008060408385031215610a9157600080fd5b8235610a9c81610914565b946020939093013593505050565b600060208284031215610abc57600080fd5b815161094981610914565b6001600160a01b03841681526040602082018190528101829052818360608301376000818301606090810191909152601f909201601f1916010192915050565b600060208284031215610b1957600080fd5b8151801515811461094957600080fd5b600060208284031215610b3b57600080fd5b5051919050565b634e487b7160e01b600052604160045260246000fd5b600060208284031215610b6a57600080fd5b815167ffffffffffffffff80821115610b8257600080fd5b818401915084601f830112610b9657600080fd5b815181811115610ba857610ba8610b42565b604051601f8201601f19908116603f01168101908382118183101715610bd057610bd0610b42565b81604052828152876020848701011115610be957600080fd5b610bfa8360208301602088016109d5565b979650505050505050565b60008251610c178184602087016109d5565b9190910192915050565b604081526000610c3460408301856109f9565b90508215156020830152939250505056fe5375636365737366756c6c2074616e73616374696f6e206279206f666672616d7065723aa2646970667358221220f993d2fb1d0dc5c866cb83392adb8776bb09806f7604eb124381412e196b476764736f6c63430008180033","linkReferences":{}},"methodIdentifiers":{"createOffRampIntentAndSendETH(address,uint256)":"bf5dd70a","getAndRemoveOffRampersIntentFromQueue()":"a15adfd2","getUserEmail(address)":"9480e948","isOffRamperQueueEmpty()":"6fd4f3d7","loginUserAccount(address)":"8b3f3e6d","numberOfOpenOffRampIntents()":"58b1fca4","offRamperContract()":"558d112e","peekOffRamperQueue()":"33ea25bd","peerFinderContract()":"78398841","queryEscrowBalance(address)":"9c7d9726","registerUserAccount(address,string)":"3d8d1601","registratorContract()":"3b6997b1","reinsertOffRampIntentAfterFailedOnRamp(address)":"1b5abc23","releasePartialFunds(address,address,uint256,uint256)":"96421a88"},"id":23}