{"abi":[{"type":"constructor","inputs":[{"name":"_registratorAddress","type":"address","internalType":"address"}],"stateMutability":"nonpayable"},{"type":"function","name":"getUserEmail","inputs":[{"name":"wallet","type":"address","internalType":"address"}],"outputs":[{"name":"","type":"string","internalType":"string"}],"stateMutability":"view"},{"type":"function","name":"loginUserAccount","inputs":[{"name":"wallet","type":"address","internalType":"address"}],"outputs":[{"name":"","type":"bool","internalType":"bool"}],"stateMutability":"view"},{"type":"function","name":"registerUserAccount","inputs":[{"name":"wallet","type":"address","internalType":"address"},{"name":"email","type":"string","internalType":"string"}],"outputs":[{"name":"","type":"bool","internalType":"bool"}],"stateMutability":"nonpayable"},{"type":"function","name":"registrator","inputs":[],"outputs":[{"name":"","type":"address","internalType":"contract IRegistrator"}],"stateMutability":"view"}],"bytecode":{"object":"0x608060405234801561001057600080fd5b5060405161054538038061054583398101604081905261002f91610054565b600080546001600160a01b0319166001600160a01b0392909216919091179055610084565b60006020828403121561006657600080fd5b81516001600160a01b038116811461007d57600080fd5b9392505050565b6104b2806100936000396000f3fe608060405234801561001057600080fd5b506004361061004c5760003560e01c80633d8d1601146100515780638b3f3e6d146100795780639480e9481461008c578063c6ed20c5146100ac575b600080fd5b61006461005f36600461025b565b6100d7565b60405190151581526020015b60405180910390f35b6100646100873660046102de565b610157565b61009f61009a3660046102de565b6101cc565b6040516100709190610324565b6000546100bf906001600160a01b031681565b6040516001600160a01b039091168152602001610070565b6000805460405163087f9c4160e11b81526001600160a01b03909116906310ff38829061010c90879087908790600401610357565b6020604051808303816000875af115801561012b573d6000803e3d6000fd5b505050506040513d601f19601f8201168201806040525081019061014f9190610397565b949350505050565b60008054604051631ad3430d60e11b81526001600160a01b038481166004830152909116906335a6861a90602401602060405180830381865afa1580156101a2573d6000803e3d6000fd5b505050506040513d601f19601f820116820180604052508101906101c69190610397565b92915050565b6000546040516313e9cd4f60e21b81526001600160a01b0383811660048301526060921690634fa7353c90602401600060405180830381865afa158015610217573d6000803e3d6000fd5b505050506040513d6000823e601f3d908101601f191682016040526101c691908101906103cf565b80356001600160a01b038116811461025657600080fd5b919050565b60008060006040848603121561027057600080fd5b6102798461023f565b9250602084013567ffffffffffffffff8082111561029657600080fd5b818601915086601f8301126102aa57600080fd5b8135818111156102b957600080fd5b8760208285010111156102cb57600080fd5b6020830194508093505050509250925092565b6000602082840312156102f057600080fd5b6102f98261023f565b9392505050565b60005b8381101561031b578181015183820152602001610303565b50506000910152565b6020815260008251806020840152610343816040850160208701610300565b601f01601f19169190910160400192915050565b6001600160a01b03841681526040602082018190528101829052818360608301376000818301606090810191909152601f909201601f1916010192915050565b6000602082840312156103a957600080fd5b815180151581146102f957600080fd5b634e487b7160e01b600052604160045260246000fd5b6000602082840312156103e157600080fd5b815167ffffffffffffffff808211156103f957600080fd5b818401915084601f83011261040d57600080fd5b81518181111561041f5761041f6103b9565b604051601f8201601f19908116603f01168101908382118183101715610447576104476103b9565b8160405282815287602084870101111561046057600080fd5b610471836020830160208801610300565b97965050505050505056fea2646970667358221220d5ebf7725f4426d36280195a1d5aed44cff517ae11bb50fe3f6c64097d02efc764736f6c63430008180033","linkReferences":{}},"methodIdentifiers":{"getUserEmail(address)":"9480e948","loginUserAccount(address)":"8b3f3e6d","registerUserAccount(address,string)":"3d8d1601","registrator()":"c6ed20c5"},"id":20}