{"abi":[{"type":"constructor","inputs":[{"name":"_registratorAddress","type":"address","internalType":"address"}],"stateMutability":"nonpayable"},{"type":"function","name":"getUserEmail","inputs":[{"name":"wallet","type":"address","internalType":"address"}],"outputs":[{"name":"","type":"string","internalType":"string"}],"stateMutability":"view"},{"type":"function","name":"loginUserAccount","inputs":[{"name":"wallet","type":"address","internalType":"address"}],"outputs":[{"name":"","type":"bool","internalType":"bool"}],"stateMutability":"view"},{"type":"function","name":"registerUserAccount","inputs":[{"name":"wallet","type":"address","internalType":"address"},{"name":"email","type":"string","internalType":"string"}],"outputs":[],"stateMutability":"nonpayable"},{"type":"function","name":"registrator","inputs":[],"outputs":[{"name":"","type":"address","internalType":"contract IRegistrator"}],"stateMutability":"view"}],"bytecode":{"object":"0x608060405234801561001057600080fd5b5060405161053238038061053283398101604081905261002f91610054565b600080546001600160a01b0319166001600160a01b0392909216919091179055610084565b60006020828403121561006657600080fd5b81516001600160a01b038116811461007d57600080fd5b9392505050565b61049f806100936000396000f3fe608060405234801561001057600080fd5b506004361061004c5760003560e01c80633d8d1601146100515780638b3f3e6d146100665780639480e9481461008e578063c6ed20c5146100ae575b600080fd5b61006461005f366004610248565b6100d9565b005b6100796100743660046102cb565b610144565b60405190151581526020015b60405180910390f35b6100a161009c3660046102cb565b6101b9565b6040516100859190610311565b6000546100c1906001600160a01b031681565b6040516001600160a01b039091168152602001610085565b60005460405163087f9c4160e11b81526001600160a01b03909116906310ff38829061010d90869086908690600401610344565b600060405180830381600087803b15801561012757600080fd5b505af115801561013b573d6000803e3d6000fd5b50505050505050565b60008054604051631ad3430d60e11b81526001600160a01b038481166004830152909116906335a6861a90602401602060405180830381865afa15801561018f573d6000803e3d6000fd5b505050506040513d601f19601f820116820180604052508101906101b39190610384565b92915050565b6000546040516313e9cd4f60e21b81526001600160a01b0383811660048301526060921690634fa7353c90602401600060405180830381865afa158015610204573d6000803e3d6000fd5b505050506040513d6000823e601f3d908101601f191682016040526101b391908101906103bc565b80356001600160a01b038116811461024357600080fd5b919050565b60008060006040848603121561025d57600080fd5b6102668461022c565b9250602084013567ffffffffffffffff8082111561028357600080fd5b818601915086601f83011261029757600080fd5b8135818111156102a657600080fd5b8760208285010111156102b857600080fd5b6020830194508093505050509250925092565b6000602082840312156102dd57600080fd5b6102e68261022c565b9392505050565b60005b838110156103085781810151838201526020016102f0565b50506000910152565b60208152600082518060208401526103308160408501602087016102ed565b601f01601f19169190910160400192915050565b6001600160a01b03841681526040602082018190528101829052818360608301376000818301606090810191909152601f909201601f1916010192915050565b60006020828403121561039657600080fd5b815180151581146102e657600080fd5b634e487b7160e01b600052604160045260246000fd5b6000602082840312156103ce57600080fd5b815167ffffffffffffffff808211156103e657600080fd5b818401915084601f8301126103fa57600080fd5b81518181111561040c5761040c6103a6565b604051601f8201601f19908116603f01168101908382118183101715610434576104346103a6565b8160405282815287602084870101111561044d57600080fd5b61045e8360208301602088016102ed565b97965050505050505056fea2646970667358221220766d0fc4123a3e285a2a8eb0a9dcd7c9b3ff339668eda545a0746751aba55ef564736f6c63430008180033","linkReferences":{}},"methodIdentifiers":{"getUserEmail(address)":"9480e948","loginUserAccount(address)":"8b3f3e6d","registerUserAccount(address,string)":"3d8d1601","registrator()":"c6ed20c5"},"id":0}