{"abi":[{"type":"constructor","inputs":[{"name":"_registratorAddress","type":"address","internalType":"address"},{"name":"_offRamperAddress","type":"address","internalType":"address"},{"name":"_peerFinderAddress","type":"address","internalType":"address"},{"name":"_onRamperAddress","type":"address","internalType":"address"}],"stateMutability":"nonpayable"},{"type":"function","name":"createOffRampIntentAndSendETH","inputs":[{"name":"user","type":"address","internalType":"address"},{"name":"amount","type":"uint256","internalType":"uint256"}],"outputs":[],"stateMutability":"payable"},{"type":"function","name":"getLongestQueuingOffRampIntentAddress","inputs":[{"name":"excludedAddresses","type":"address[]","internalType":"address[]"}],"outputs":[{"name":"","type":"address","internalType":"address"},{"name":"","type":"string","internalType":"string"}],"stateMutability":"view"},{"type":"function","name":"getUserEmail","inputs":[{"name":"wallet","type":"address","internalType":"address"}],"outputs":[{"name":"","type":"string","internalType":"string"}],"stateMutability":"view"},{"type":"function","name":"isOffRamperQueueEmpty","inputs":[],"outputs":[{"name":"","type":"bool","internalType":"bool"}],"stateMutability":"view"},{"type":"function","name":"loginUserAccount","inputs":[{"name":"wallet","type":"address","internalType":"address"}],"outputs":[{"name":"","type":"bool","internalType":"bool"}],"stateMutability":"view"},{"type":"function","name":"numberOfOpenOffRampIntents","inputs":[],"outputs":[{"name":"","type":"uint256","internalType":"uint256"}],"stateMutability":"view"},{"type":"function","name":"offRamperContract","inputs":[],"outputs":[{"name":"","type":"address","internalType":"contract IOffRamper"}],"stateMutability":"view"},{"type":"function","name":"onRamp","inputs":[{"name":"amount","type":"uint256","internalType":"uint256"},{"name":"offRamper","type":"address","internalType":"address"},{"name":"transactionSenderEmail","type":"string","internalType":"string"},{"name":"transactionReceiverEmail","type":"string","internalType":"string"},{"name":"transactionAmount","type":"uint256","internalType":"uint256"}],"outputs":[],"stateMutability":"nonpayable"},{"type":"function","name":"onRamperContract","inputs":[],"outputs":[{"name":"","type":"address","internalType":"contract IOnRamper"}],"stateMutability":"view"},{"type":"function","name":"peerFinderContract","inputs":[],"outputs":[{"name":"","type":"address","internalType":"contract IPeerFinder"}],"stateMutability":"view"},{"type":"function","name":"queryEscrowBalance","inputs":[{"name":"user","type":"address","internalType":"address"}],"outputs":[{"name":"","type":"uint256","internalType":"uint256"}],"stateMutability":"view"},{"type":"function","name":"registerUserAccount","inputs":[{"name":"wallet","type":"address","internalType":"address"},{"name":"email","type":"string","internalType":"string"}],"outputs":[{"name":"","type":"bool","internalType":"bool"}],"stateMutability":"nonpayable"},{"type":"function","name":"registratorContract","inputs":[],"outputs":[{"name":"","type":"address","internalType":"contract IRegistrator"}],"stateMutability":"view"},{"type":"function","name":"releasePartialFundsToOnRamper","inputs":[{"name":"offRamper","type":"address","internalType":"address"},{"name":"onRamper","type":"address","internalType":"address"},{"name":"releaseAmount","type":"uint256","internalType":"uint256"}],"outputs":[],"stateMutability":"nonpayable"},{"type":"event","name":"GotOffRampersAddressInOrchestrator","inputs":[{"name":"offRamper","type":"address","indexed":false,"internalType":"address"}],"anonymous":false},{"type":"event","name":"OffRampIntentCreatedAndETHSent","inputs":[{"name":"user","type":"address","indexed":true,"internalType":"address"},{"name":"amount","type":"uint256","indexed":false,"internalType":"uint256"}],"anonymous":false},{"type":"event","name":"OffRampersIntentAddedInOrchestrator","inputs":[{"name":"offRamper","type":"address","indexed":false,"internalType":"address"}],"anonymous":false},{"type":"event","name":"OffRampersIntentReinsertedInOrchestrator","inputs":[{"name":"offRamper","type":"address","indexed":true,"internalType":"address"}],"anonymous":false},{"type":"event","name":"OnRampCompleted","inputs":[{"name":"offRamper","type":"address","indexed":true,"internalType":"address"},{"name":"onRamper","type":"address","indexed":true,"internalType":"address"},{"name":"amount","type":"uint256","indexed":false,"internalType":"uint256"}],"anonymous":false},{"type":"event","name":"OnRampCompletedInOrchestrator","inputs":[{"name":"offRamper","type":"address","indexed":true,"internalType":"address"},{"name":"onRamper","type":"address","indexed":true,"internalType":"address"},{"name":"amount","type":"uint256","indexed":false,"internalType":"uint256"}],"anonymous":false},{"type":"event","name":"OnRampFailed","inputs":[{"name":"offRamper","type":"address","indexed":true,"internalType":"address"},{"name":"onRamper","type":"address","indexed":true,"internalType":"address"},{"name":"amount","type":"uint256","indexed":false,"internalType":"uint256"}],"anonymous":false},{"type":"event","name":"OnRampFailedInOrchestrator","inputs":[{"name":"offRamper","type":"address","indexed":true,"internalType":"address"},{"name":"onRamper","type":"address","indexed":true,"internalType":"address"},{"name":"amount","type":"uint256","indexed":false,"internalType":"uint256"}],"anonymous":false},{"type":"event","name":"ReleasedPartialFundsToOnRamperInOrchestrator","inputs":[{"name":"offRamper","type":"address","indexed":true,"internalType":"address"},{"name":"onRamper","type":"address","indexed":true,"internalType":"address"},{"name":"releaseAmount","type":"uint256","indexed":false,"internalType":"uint256"}],"anonymous":false},{"type":"event","name":"UserRegisteredInOrchestrator","inputs":[{"name":"user","type":"address","indexed":true,"internalType":"address"},{"name":"success","type":"bool","indexed":false,"internalType":"bool"}],"anonymous":false}],"bytecode":{"object":"0x60806040523480156200001157600080fd5b5060405162001389380380620013898339810160408190526200003491620000a5565b600080546001600160a01b039586166001600160a01b031991821617909155600180549486169482169490941790935560028054928516928416929092179091556003805491909316911617905562000102565b80516001600160a01b0381168114620000a057600080fd5b919050565b60008060008060808587031215620000bc57600080fd5b620000c78562000088565b9350620000d76020860162000088565b9250620000e76040860162000088565b9150620000f76060860162000088565b905092959194509250565b61127780620001126000396000f3fe6080604052600436106100dd5760003560e01c8063783988411161007f5780639c7d9726116100595780639c7d972614610264578063b25c056414610284578063bf5dd70a146102a4578063c397a121146102b757600080fd5b806378398841146101f75780638b3f3e6d146102175780639480e9481461023757600080fd5b806358b1fca4116100bb57806358b1fca41461016f5780635e12b62814610192578063688064d3146101b45780636fd4f3d7146101e257600080fd5b80633b6997b1146100e25780633d8d16011461011f578063558d112e1461014f575b600080fd5b3480156100ee57600080fd5b50600054610102906001600160a01b031681565b6040516001600160a01b0390911681526020015b60405180910390f35b34801561012b57600080fd5b5061013f61013a366004610d09565b6102d7565b6040519015158152602001610116565b34801561015b57600080fd5b50600154610102906001600160a01b031681565b34801561017b57600080fd5b5061018461039e565b604051908152602001610116565b34801561019e57600080fd5b506101b26101ad366004610d5e565b610411565b005b3480156101c057600080fd5b506101d46101cf366004610de6565b6104d1565b604051610116929190610ee8565b3480156101ee57600080fd5b5061013f6105c9565b34801561020357600080fd5b50600254610102906001600160a01b031681565b34801561022357600080fd5b5061013f610232366004610f14565b610637565b34801561024357600080fd5b50610257610252366004610f14565b6106ac565b6040516101169190610f38565b34801561027057600080fd5b5061018461027f366004610f14565b61071f565b34801561029057600080fd5b506101b261029f366004610f4b565b61078e565b6101b26102b2366004610fe0565b610abb565b3480156102c357600080fd5b50600354610102906001600160a01b031681565b6000805460405163087f9c4160e11b815282916001600160a01b0316906310ff38829061030c90889088908890600401611035565b6020604051808303816000875af115801561032b573d6000803e3d6000fd5b505050506040513d601f19601f8201168201806040525081019061034f9190611063565b9050846001600160a01b03167f33ed15e8fcd8365f5a81d1fe56e10b62e5ade28375b3a08186eb59ebc2747db48260405161038e911515815260200190565b60405180910390a2949350505050565b6002546040805163949d225d60e01b815290516000926001600160a01b03169163949d225d9160048083019260209291908290030181865afa1580156103e8573d6000803e3d6000fd5b505050506040513d601f19601f8201168201806040525081019061040c9190611085565b905090565b600154604051630bc256c560e31b81526001600160a01b03858116600483015284811660248301526044820184905290911690635e12b62890606401600060405180830381600087803b15801561046757600080fd5b505af115801561047b573d6000803e3d6000fd5b50505050816001600160a01b0316836001600160a01b03167f1f956cf7ef20e22f475d005f9ab0094b04045c1f331ef8d2b443130e8466fada836040516104c491815260200190565b60405180910390a3505050565b6002546040516308062a5760e21b815260009160609183916001600160a01b031690632018a95c9061050790879060040161109e565b602060405180830381865afa158015610524573d6000803e3d6000fd5b505050506040513d601f19601f8201168201806040525081019061054891906110eb565b6000546040516313e9cd4f60e21b81526001600160a01b038084166004830152929350839290911690634fa7353c90602401600060405180830381865afa158015610597573d6000803e3d6000fd5b505050506040513d6000823e601f3d908101601f191682016040526105bf9190810190611108565b9250925050915091565b60025460408051631a07f9c360e21b815290516000926001600160a01b03169163681fe70c9160048083019260209291908290030181865afa158015610613573d6000803e3d6000fd5b505050506040513d601f19601f8201168201806040525081019061040c9190611063565b60008054604051631ad3430d60e11b81526001600160a01b038481166004830152909116906335a6861a90602401602060405180830381865afa158015610682573d6000803e3d6000fd5b505050506040513d601f19601f820116820180604052508101906106a69190611063565b92915050565b6000546040516313e9cd4f60e21b81526001600160a01b0383811660048301526060921690634fa7353c90602401600060405180830381865afa1580156106f7573d6000803e3d6000fd5b505050506040513d6000823e601f3d908101601f191682016040526106a69190810190611108565b600154604051636374b11b60e01b81526001600160a01b0383811660048301526000921690636374b11b90602401602060405180830381865afa15801561076a573d6000803e3d6000fd5b505050506040513d601f19601f820116820180604052508101906106a69190611085565b600080546040516313e9cd4f60e21b8152336004820181905292916001600160a01b031690634fa7353c90602401600060405180830381865afa1580156107d9573d6000803e3d6000fd5b505050506040513d6000823e601f3d908101601f191682016040526108019190810190611108565b600080546040516313e9cd4f60e21b81526001600160a01b038c8116600483015293945091921690634fa7353c90602401600060405180830381865afa15801561084f573d6000803e3d6000fd5b505050506040513d6000823e601f3d908101601f191682016040526108779190810190611108565b90506000600360009054906101000a90046001600160a01b03166001600160a01b031663aa4a1cce8c868d87878f8f8f8f8f6040518b63ffffffff1660e01b81526004016108ce9a9998979695949392919061119c565b6020604051808303816000875af11580156108ed573d6000803e3d6000fd5b505050506040513d601f19601f820116820180604052508101906109119190611063565b90508015610a6057600254604051632eceb90360e21b81526001600160a01b038c811660048301529091169063bb3ae40c90602401600060405180830381600087803b15801561096057600080fd5b505af1158015610974573d6000803e3d6000fd5b50505050600160009054906101000a90046001600160a01b03166001600160a01b0316635e12b6288b868e6040518463ffffffff1660e01b81526004016109dc939291906001600160a01b039384168152919092166020820152604081019190915260600190565b600060405180830381600087803b1580156109f657600080fd5b505af1158015610a0a573d6000803e3d6000fd5b50505050836001600160a01b03168a6001600160a01b03167f72c72fe126530a28969d8c9a1de53f94e67a78d2b485ab1747a7ef501981ce268d604051610a5391815260200190565b60405180910390a3610aae565b836001600160a01b03168a6001600160a01b03167fdb184558b2ecee996d263d255508b229d5edf53e4b4298365c191d830222f58a8d604051610aa591815260200190565b60405180910390a35b5050505050505050505050565b803414610b065760405162461bcd60e51b8152602060048201526014602482015273125b98dbdc9c9958dd0811551208185b5bdd5b9d60621b60448201526064015b60405180910390fd5b6001546040516001600160a01b038481166024830152604482018490526000921690349060640160408051601f198184030181529181526020820180516001600160e01b031663d5a6c4d760e01b17905251610b629190611225565b60006040518083038185875af1925050503d8060008114610b9f576040519150601f19603f3d011682016040523d82523d6000602084013e610ba4565b606091505b5050905080610c015760405162461bcd60e51b8152602060048201526024808201527f4661696c656420746f2073656e6420455448206f722063616c6c204f6666526160448201526336b832b960e11b6064820152608401610afd565b6002546040516367f2393d60e01b81526001600160a01b038581166004830152909116906367f2393d90602401600060405180830381600087803b158015610c4857600080fd5b505af1158015610c5c573d6000803e3d6000fd5b50505050826001600160a01b03167f02367e4287401a6fa44844ecacf76d053e5137ea58c3fd2d3386ebd2c3c93b4283604051610c9b91815260200190565b60405180910390a2505050565b6001600160a01b0381168114610cbd57600080fd5b50565b60008083601f840112610cd257600080fd5b50813567ffffffffffffffff811115610cea57600080fd5b602083019150836020828501011115610d0257600080fd5b9250929050565b600080600060408486031215610d1e57600080fd5b8335610d2981610ca8565b9250602084013567ffffffffffffffff811115610d4557600080fd5b610d5186828701610cc0565b9497909650939450505050565b600080600060608486031215610d7357600080fd5b8335610d7e81610ca8565b92506020840135610d8e81610ca8565b929592945050506040919091013590565b634e487b7160e01b600052604160045260246000fd5b604051601f8201601f1916810167ffffffffffffffff81118282101715610dde57610dde610d9f565b604052919050565b60006020808385031215610df957600080fd5b823567ffffffffffffffff80821115610e1157600080fd5b818501915085601f830112610e2557600080fd5b813581811115610e3757610e37610d9f565b8060051b9150610e48848301610db5565b8181529183018401918481019088841115610e6257600080fd5b938501935b83851015610e8c5784359250610e7c83610ca8565b8282529385019390850190610e67565b98975050505050505050565b60005b83811015610eb3578181015183820152602001610e9b565b50506000910152565b60008151808452610ed4816020860160208601610e98565b601f01601f19169290920160200192915050565b6001600160a01b0383168152604060208201819052600090610f0c90830184610ebc565b949350505050565b600060208284031215610f2657600080fd5b8135610f3181610ca8565b9392505050565b602081526000610f316020830184610ebc565b600080600080600080600060a0888a031215610f6657600080fd5b873596506020880135610f7881610ca8565b9550604088013567ffffffffffffffff80821115610f9557600080fd5b610fa18b838c01610cc0565b909750955060608a0135915080821115610fba57600080fd5b50610fc78a828b01610cc0565b989b979a50959894979596608090950135949350505050565b60008060408385031215610ff357600080fd5b8235610ffe81610ca8565b946020939093013593505050565b81835281816020850137506000828201602090810191909152601f909101601f19169091010190565b6001600160a01b038416815260406020820181905260009061105a908301848661100c565b95945050505050565b60006020828403121561107557600080fd5b81518015158114610f3157600080fd5b60006020828403121561109757600080fd5b5051919050565b6020808252825182820181905260009190848201906040850190845b818110156110df5783516001600160a01b0316835292840192918401916001016110ba565b50909695505050505050565b6000602082840312156110fd57600080fd5b8151610f3181610ca8565b60006020828403121561111a57600080fd5b815167ffffffffffffffff8082111561113257600080fd5b818401915084601f83011261114657600080fd5b81518181111561115857611158610d9f565b61116b601f8201601f1916602001610db5565b915080825285602082850101111561118257600080fd5b611193816020840160208601610e98565b50949350505050565b8a81526001600160a01b038a8116602083015289166040820152610100606082018190526000906111cf8382018b610ebc565b905082810360808401526111e3818a610ebc565b905082810360a08401526111f881888a61100c565b905082810360c084015261120d81868861100c565b9150508260e08301529b9a5050505050505050505050565b60008251611237818460208701610e98565b919091019291505056fea26469706673582212203f63ecf38dad6d7b3bb1d165fc476b7ba736f69fee59d68d1521735ab435a9c564736f6c63430008180033","linkReferences":{}},"methodIdentifiers":{"createOffRampIntentAndSendETH(address,uint256)":"bf5dd70a","getLongestQueuingOffRampIntentAddress(address[])":"688064d3","getUserEmail(address)":"9480e948","isOffRamperQueueEmpty()":"6fd4f3d7","loginUserAccount(address)":"8b3f3e6d","numberOfOpenOffRampIntents()":"58b1fca4","offRamperContract()":"558d112e","onRamp(uint256,address,string,string,uint256)":"b25c0564","onRamperContract()":"c397a121","peerFinderContract()":"78398841","queryEscrowBalance(address)":"9c7d9726","registerUserAccount(address,string)":"3d8d1601","registratorContract()":"3b6997b1","releasePartialFundsToOnRamper(address,address,uint256)":"5e12b628"},"id":24}