{"abi":[{"type":"constructor","inputs":[{"name":"_registratorAddress","type":"address","internalType":"address"},{"name":"_offRamperAddress","type":"address","internalType":"address"},{"name":"_peerFinderAddress","type":"address","internalType":"address"}],"stateMutability":"nonpayable"},{"type":"function","name":"decreaseOffRampIntentAfterTransaction","inputs":[{"name":"wallet","type":"address","internalType":"address"},{"name":"amount","type":"uint16","internalType":"uint16"}],"outputs":[{"name":"","type":"bool","internalType":"bool"}],"stateMutability":"nonpayable"},{"type":"function","name":"getAndRemoveOffRampersIntentFromQueue","inputs":[],"outputs":[{"name":"","type":"address","internalType":"address"}],"stateMutability":"nonpayable"},{"type":"function","name":"getOpenOffRampIntent","inputs":[{"name":"wallet","type":"address","internalType":"address"}],"outputs":[{"name":"","type":"uint16","internalType":"uint16"}],"stateMutability":"view"},{"type":"function","name":"getUserEmail","inputs":[{"name":"wallet","type":"address","internalType":"address"}],"outputs":[{"name":"","type":"string","internalType":"string"}],"stateMutability":"view"},{"type":"function","name":"isOffRamperQueueEmpty","inputs":[],"outputs":[{"name":"","type":"bool","internalType":"bool"}],"stateMutability":"view"},{"type":"function","name":"loginUserAccount","inputs":[{"name":"wallet","type":"address","internalType":"address"}],"outputs":[{"name":"","type":"bool","internalType":"bool"}],"stateMutability":"view"},{"type":"function","name":"newOffRampIntent","inputs":[{"name":"wallet","type":"address","internalType":"address"},{"name":"amount","type":"uint16","internalType":"uint16"}],"outputs":[{"name":"","type":"bool","internalType":"bool"}],"stateMutability":"nonpayable"},{"type":"function","name":"numberOfOpenOffRampIntents","inputs":[],"outputs":[{"name":"","type":"uint256","internalType":"uint256"}],"stateMutability":"view"},{"type":"function","name":"offRamper","inputs":[],"outputs":[{"name":"","type":"address","internalType":"contract IOffRamper"}],"stateMutability":"view"},{"type":"function","name":"peekOffRamperQueue","inputs":[],"outputs":[{"name":"","type":"address","internalType":"address"}],"stateMutability":"view"},{"type":"function","name":"peerFinder","inputs":[],"outputs":[{"name":"","type":"address","internalType":"contract IPeerFinder"}],"stateMutability":"view"},{"type":"function","name":"registerUserAccount","inputs":[{"name":"wallet","type":"address","internalType":"address"},{"name":"email","type":"string","internalType":"string"}],"outputs":[{"name":"","type":"bool","internalType":"bool"}],"stateMutability":"nonpayable"},{"type":"function","name":"registrator","inputs":[],"outputs":[{"name":"","type":"address","internalType":"contract IRegistrator"}],"stateMutability":"view"},{"type":"function","name":"reinsertOffRampIntentAfterFailedOnRamp","inputs":[{"name":"_address","type":"address","internalType":"address"}],"outputs":[],"stateMutability":"nonpayable"}],"bytecode":{"object":"0x608060405234801561001057600080fd5b50604051610b6d380380610b6d83398101604081905261002f9161008d565b600080546001600160a01b039485166001600160a01b0319918216179091556001805493851693821693909317909255600280549190931691161790556100d0565b80516001600160a01b038116811461008857600080fd5b919050565b6000806000606084860312156100a257600080fd5b6100ab84610071565b92506100b960208501610071565b91506100c760408501610071565b90509250925092565b610a8e806100df6000396000f3fe608060405234801561001057600080fd5b50600436106100ea5760003560e01c806377355efb1161008c5780639480e948116100665780639480e948146101dc578063a15adfd2146101fc578063bf47164714610204578063c6ed20c51461021757600080fd5b806377355efb1461019057806385bfe367146101a35780638b3f3e6d146101c957600080fd5b80633d8d1601116100c85780633d8d16011461013c57806358b1fca41461015f57806359475637146101755780636fd4f3d71461018857600080fd5b80631b5abc23146100ef578063201fcc271461010457806333ea25bd14610134575b600080fd5b6101026100fd36600461079e565b61022a565b005b600154610117906001600160a01b031681565b6040516001600160a01b0390911681526020015b60405180910390f35b61011761028d565b61014f61014a3660046107bb565b610300565b604051901515815260200161012b565b610167610380565b60405190815260200161012b565b600254610117906001600160a01b031681565b61014f6103ee565b61014f61019e366004610850565b61045c565b6101b66101b136600461079e565b6104de565b60405161ffff909116815260200161012b565b61014f6101d736600461079e565b610553565b6101ef6101ea36600461079e565b6105c2565b60405161012b91906108ad565b610117610635565b61014f610212366004610850565b610680565b600054610117906001600160a01b031681565b600254604051631b5abc2360e01b81526001600160a01b03838116600483015290911690631b5abc23906024015b600060405180830381600087803b15801561027257600080fd5b505af1158015610286573d6000803e3d6000fd5b5050505050565b600254604080516359e02dd760e01b815290516000926001600160a01b0316916359e02dd79160048083019260209291908290030181865afa1580156102d7573d6000803e3d6000fd5b505050506040513d601f19601f820116820180604052508101906102fb91906108e0565b905090565b6000805460405163087f9c4160e11b81526001600160a01b03909116906310ff388290610335908790879087906004016108fd565b6020604051808303816000875af1158015610354573d6000803e3d6000fd5b505050506040513d601f19601f82011682018060405250810190610378919061093d565b949350505050565b6002546040805163949d225d60e01b815290516000926001600160a01b03169163949d225d9160048083019260209291908290030181865afa1580156103ca573d6000803e3d6000fd5b505050506040513d601f19601f820116820180604052508101906102fb919061095f565b60025460408051631a07f9c360e21b815290516000926001600160a01b03169163681fe70c9160048083019260209291908290030181865afa158015610438573d6000803e3d6000fd5b505050506040513d601f19601f820116820180604052508101906102fb919061093d565b6001546040516377355efb60e01b81526001600160a01b03848116600483015261ffff8416602483015260009216906377355efb906044016020604051808303816000875af11580156104b3573d6000803e3d6000fd5b505050506040513d601f19601f820116820180604052508101906104d7919061093d565b9392505050565b6001546040516385bfe36760e01b81526001600160a01b03838116600483015260009216906385bfe36790602401602060405180830381865afa158015610529573d6000803e3d6000fd5b505050506040513d601f19601f8201168201806040525081019061054d9190610978565b92915050565b60008054604051631ad3430d60e11b81526001600160a01b038481166004830152909116906335a6861a90602401602060405180830381865afa15801561059e573d6000803e3d6000fd5b505050506040513d601f19601f8201168201806040525081019061054d919061093d565b6000546040516313e9cd4f60e21b81526001600160a01b0383811660048301526060921690634fa7353c90602401600060405180830381865afa15801561060d573d6000803e3d6000fd5b505050506040513d6000823e601f3d908101601f1916820160405261054d91908101906109ab565b60025460408051632826e13960e21b815290516000926001600160a01b03169163a09b84e4916004808301926020929190829003018187875af11580156102d7573d6000803e3d6000fd5b60015460405163bf47164760e01b81526001600160a01b03848116600483015261ffff84166024830152600092169063bf471647906044016020604051808303816000875af11580156106d7573d6000803e3d6000fd5b505050506040513d601f19601f820116820180604052508101906106fb919061093d565b6107425760405162461bcd60e51b815260206004820152601460248201527313d99994985b5c125b9d195b9d0819985a5b195960621b604482015260640160405180910390fd5b61074b83610754565b50600192915050565b6002546040516367f2393d60e01b81526001600160a01b038381166004830152909116906367f2393d90602401610258565b6001600160a01b038116811461079b57600080fd5b50565b6000602082840312156107b057600080fd5b81356104d781610786565b6000806000604084860312156107d057600080fd5b83356107db81610786565b9250602084013567ffffffffffffffff808211156107f857600080fd5b818601915086601f83011261080c57600080fd5b81358181111561081b57600080fd5b87602082850101111561082d57600080fd5b6020830194508093505050509250925092565b61ffff8116811461079b57600080fd5b6000806040838503121561086357600080fd5b823561086e81610786565b9150602083013561087e81610840565b809150509250929050565b60005b838110156108a457818101518382015260200161088c565b50506000910152565b60208152600082518060208401526108cc816040850160208701610889565b601f01601f19169190910160400192915050565b6000602082840312156108f257600080fd5b81516104d781610786565b6001600160a01b03841681526040602082018190528101829052818360608301376000818301606090810191909152601f909201601f1916010192915050565b60006020828403121561094f57600080fd5b815180151581146104d757600080fd5b60006020828403121561097157600080fd5b5051919050565b60006020828403121561098a57600080fd5b81516104d781610840565b634e487b7160e01b600052604160045260246000fd5b6000602082840312156109bd57600080fd5b815167ffffffffffffffff808211156109d557600080fd5b818401915084601f8301126109e957600080fd5b8151818111156109fb576109fb610995565b604051601f8201601f19908116603f01168101908382118183101715610a2357610a23610995565b81604052828152876020848701011115610a3c57600080fd5b610a4d836020830160208801610889565b97965050505050505056fea2646970667358221220fa2fe449fe330fc07a31b961b0904d2865d2cf3c741f76037b37069e75628a7864736f6c63430008180033","linkReferences":{}},"methodIdentifiers":{"decreaseOffRampIntentAfterTransaction(address,uint16)":"77355efb","getAndRemoveOffRampersIntentFromQueue()":"a15adfd2","getOpenOffRampIntent(address)":"85bfe367","getUserEmail(address)":"9480e948","isOffRamperQueueEmpty()":"6fd4f3d7","loginUserAccount(address)":"8b3f3e6d","newOffRampIntent(address,uint16)":"bf471647","numberOfOpenOffRampIntents()":"58b1fca4","offRamper()":"201fcc27","peekOffRamperQueue()":"33ea25bd","peerFinder()":"59475637","registerUserAccount(address,string)":"3d8d1601","registrator()":"c6ed20c5","reinsertOffRampIntentAfterFailedOnRamp(address)":"1b5abc23"},"id":2}