{"abi":[{"type":"constructor","inputs":[{"name":"_registratorAddress","type":"address","internalType":"address"},{"name":"_offRamperAddress","type":"address","internalType":"address"},{"name":"_peerFinderAddress","type":"address","internalType":"address"},{"name":"_onRamperAddress","type":"address","internalType":"address"}],"stateMutability":"nonpayable"},{"type":"function","name":"createOffRampIntentAndSendETH","inputs":[{"name":"user","type":"address","internalType":"address"},{"name":"amount","type":"uint256","internalType":"uint256"}],"outputs":[],"stateMutability":"payable"},{"type":"function","name":"getAndRemoveOffRampersIntentFromQueue","inputs":[],"outputs":[{"name":"","type":"address","internalType":"address"}],"stateMutability":"nonpayable"},{"type":"function","name":"getUserEmail","inputs":[{"name":"wallet","type":"address","internalType":"address"}],"outputs":[{"name":"","type":"string","internalType":"string"}],"stateMutability":"view"},{"type":"function","name":"isOffRamperQueueEmpty","inputs":[],"outputs":[{"name":"","type":"bool","internalType":"bool"}],"stateMutability":"view"},{"type":"function","name":"loginUserAccount","inputs":[{"name":"wallet","type":"address","internalType":"address"}],"outputs":[{"name":"","type":"bool","internalType":"bool"}],"stateMutability":"view"},{"type":"function","name":"numberOfOpenOffRampIntents","inputs":[],"outputs":[{"name":"","type":"uint256","internalType":"uint256"}],"stateMutability":"view"},{"type":"function","name":"offRamperContract","inputs":[],"outputs":[{"name":"","type":"address","internalType":"contract IOffRamper"}],"stateMutability":"view"},{"type":"function","name":"onRamp","inputs":[{"name":"amount","type":"uint256","internalType":"uint256"},{"name":"offRamper","type":"address","internalType":"address"},{"name":"transactionSenderEmail","type":"string","internalType":"string"},{"name":"transactionReceiverEmail","type":"string","internalType":"string"},{"name":"transactionAmount","type":"uint256","internalType":"uint256"}],"outputs":[],"stateMutability":"nonpayable"},{"type":"function","name":"onRamperContract","inputs":[],"outputs":[{"name":"","type":"address","internalType":"contract IOnRamper"}],"stateMutability":"view"},{"type":"function","name":"peekOffRamperQueue","inputs":[],"outputs":[{"name":"","type":"address","internalType":"address"}],"stateMutability":"view"},{"type":"function","name":"peerFinderContract","inputs":[],"outputs":[{"name":"","type":"address","internalType":"contract IPeerFinder"}],"stateMutability":"view"},{"type":"function","name":"queryEscrowBalance","inputs":[{"name":"user","type":"address","internalType":"address"}],"outputs":[{"name":"","type":"uint256","internalType":"uint256"}],"stateMutability":"view"},{"type":"function","name":"registerUserAccount","inputs":[{"name":"wallet","type":"address","internalType":"address"},{"name":"email","type":"string","internalType":"string"}],"outputs":[{"name":"","type":"bool","internalType":"bool"}],"stateMutability":"nonpayable"},{"type":"function","name":"registratorContract","inputs":[],"outputs":[{"name":"","type":"address","internalType":"contract IRegistrator"}],"stateMutability":"view"},{"type":"function","name":"reinsertOffRampIntentAfterFailedOnRamp","inputs":[{"name":"_address","type":"address","internalType":"address"}],"outputs":[],"stateMutability":"nonpayable"},{"type":"function","name":"releasePartialFundsToOnRamper","inputs":[{"name":"offRamper","type":"address","internalType":"address"},{"name":"onRamper","type":"address","internalType":"address"},{"name":"releaseAmount","type":"uint256","internalType":"uint256"}],"outputs":[],"stateMutability":"nonpayable"},{"type":"event","name":"GotOffRampersAddressInOrchestrator","inputs":[{"name":"offRamper","type":"address","indexed":false,"internalType":"address"}],"anonymous":false},{"type":"event","name":"OffRampIntentCreatedAndETHSent","inputs":[{"name":"user","type":"address","indexed":true,"internalType":"address"},{"name":"amount","type":"uint256","indexed":false,"internalType":"uint256"}],"anonymous":false},{"type":"event","name":"OffRampersIntentAddedInOrchestrator","inputs":[{"name":"offRamper","type":"address","indexed":false,"internalType":"address"}],"anonymous":false},{"type":"event","name":"OffRampersIntentReinsertedInOrchestrator","inputs":[{"name":"offRamper","type":"address","indexed":true,"internalType":"address"}],"anonymous":false},{"type":"event","name":"OnRampCompleted","inputs":[{"name":"offRamper","type":"address","indexed":true,"internalType":"address"},{"name":"onRamper","type":"address","indexed":true,"internalType":"address"},{"name":"amount","type":"uint256","indexed":false,"internalType":"uint256"}],"anonymous":false},{"type":"event","name":"OnRampCompletedInOrchestrator","inputs":[{"name":"offRamper","type":"address","indexed":true,"internalType":"address"},{"name":"onRamper","type":"address","indexed":true,"internalType":"address"},{"name":"amount","type":"uint256","indexed":false,"internalType":"uint256"}],"anonymous":false},{"type":"event","name":"OnRampFailed","inputs":[{"name":"offRamper","type":"address","indexed":true,"internalType":"address"},{"name":"onRamper","type":"address","indexed":true,"internalType":"address"},{"name":"amount","type":"uint256","indexed":false,"internalType":"uint256"}],"anonymous":false},{"type":"event","name":"OnRampFailedInOrchestrator","inputs":[{"name":"offRamper","type":"address","indexed":true,"internalType":"address"},{"name":"onRamper","type":"address","indexed":true,"internalType":"address"},{"name":"amount","type":"uint256","indexed":false,"internalType":"uint256"}],"anonymous":false},{"type":"event","name":"ReleasedPartialFundsToOnRamperInOrchestrator","inputs":[{"name":"offRamper","type":"address","indexed":true,"internalType":"address"},{"name":"onRamper","type":"address","indexed":true,"internalType":"address"},{"name":"releaseAmount","type":"uint256","indexed":false,"internalType":"uint256"}],"anonymous":false},{"type":"event","name":"UserRegisteredInOrchestrator","inputs":[{"name":"user","type":"address","indexed":true,"internalType":"address"},{"name":"success","type":"bool","indexed":false,"internalType":"bool"}],"anonymous":false}],"bytecode":{"object":"0x6080346100b957601f610f8738819003918201601f19168301916001600160401b038311848410176100be578084926080946040528339810103126100b957610047816100d4565b90610054602082016100d4565b61006c6060610065604085016100d4565b93016100d4565b9060018060a01b03928380928160018060a01b03199716876000541617600055168560015416176001551683600254161760025516906003541617600355604051610e9e90816100e98239f35b600080fd5b634e487b7160e01b600052604160045260246000fd5b51906001600160a01b03821682036100b95756fe608060408181526004918236101561001657600080fd5b600092833560e01c9182631b5abc2314610c095750816333ea25bd14610b905781633b6997b114610b685781633d8d160114610a85578163558d112e14610a5c57816358b1fca4146109d05781635e12b628146108fe5781636fd4f3d7146108b057816378398841146108875781638b3f3e6d146108075781639480e9481461076f5781639c7d9726146106d357838263a15adfd2146105f857508163b25c0564146102f9578163bf5dd70a14610102575063c397a121146100d757600080fd5b346100fe57816003193601126100fe5760035490516001600160a01b039091168152602090f35b5080fd5b9050816003193601126102f557610117610ca4565b916024918235928334036102bd57600154835163d5a6c4d760e01b602082019081526001600160a01b039788168483018190526044808401899052835297928316916080810167ffffffffffffffff8111828210176102a957875251899283929034905af13d156102a4573d61018c81610dea565b9061019987519283610d70565b81528860203d92013e5b1561025757908692916002541691823b15610249578391879183875195869485936367f2393d60e01b85528401525af1801561024d57610235575b50507f02367e4287401a6fa44844ecacf76d053e5137ea58c3fd2d3386ebd2c3c93b4291817f5ba73d516444feb5fda9a8609c08cc2bb8cdcec42538e960518632d4d65f6d716020809451878152a151908152a280f35b61023e90610d46565b6102495783386101de565b8380fd5b83513d84823e3d90fd5b506020608493519262461bcd60e51b8452830152808201527f4661696c656420746f2073656e6420455448206f722063616c6c204f6666526160448201526336b832b960e11b6064820152fd5b6101a3565b85604188634e487b7160e01b600052526000fd5b6014906020606494519362461bcd60e51b855284015282015273125b98dbdc9c9958dd0811551208185b5bdd5b9d60621b6044820152fd5b8280fd5b919050346102f5576003199060a036830112610249578383359361031b610cba565b9067ffffffffffffffff6044358181116105f45761033c9036908401610cd0565b9690916064359081116105f0576103569036908501610cd0565b60018060a09493941b039384885416998a8a518a816024816313e9cd4f60e21b958682528d33908301525afa9081156105cc578b916105d6575b508b519182528a82898c169e8f8c830152815a91602492fa9182156105cc57938d97938f9692938e98948c978f80936105a7575b50508b6003541699519a8b998a996355250e6760e11b8b528a01523360248a01526044890152606488016101009052610104880161040191610d21565b8588820301608489015261041491610d21565b90848783030160a488015261042892610dc9565b918483030160c485015261043b92610dc9565b60843560e48301520381885a94602095f190811561059d57859161056e575b50156104f7576001541691823b15610249578451630bc256c560e31b81526001600160a01b039091169181019182523360208301526040820187905291839183919082908490829060600103925af1801561024d576104e3575b5050519182527f72c72fe126530a28969d8c9a1de53f94e67a78d2b485ab1747a7ef501981ce2660203393a380f35b6104ec90610d46565b6102495783386104b4565b600254169150813b156102f55784602484928387519586948593631b5abc2360e01b85528401525af1801561024d5761055a575b5050519182527fdb184558b2ecee996d263d255508b229d5edf53e4b4298365c191d830222f58a60203393a380f35b61056390610d46565b61024957833861052b565b610590915060203d602011610596575b6105888183610d70565b810190610db1565b3861045a565b503d61057e565b86513d87823e3d90fd5b6105c49293503d8091833e6105bc8183610d70565b810190610e06565b90388f6103c4565b8c513d8d823e3d90fd5b6105ea91503d808d833e6105bc8183610d70565b38610390565b8580fd5b8480fd5b929150346106cf57826003193601126106cf576002548251632826e13960e21b8152936001600160a01b03926020928692839186165af19283156106c55760209493610672575b50837f100e2331d45dce8de9612bf02fcfc4a757d5441de0b42733eef03e0767d725c5918351941693848152a151908152f35b7f100e2331d45dce8de9612bf02fcfc4a757d5441de0b42733eef03e0767d725c59193506106b68591823d84116106be575b6106ae8183610d70565b810190610d92565b93915061063f565b503d6106a4565b82513d86823e3d90fd5b5050fd5b8383346100fe57602092836003193601126102f557836106f1610ca4565b6001548451636374b11b60e01b81526001600160a01b039283169481019490945283916024918391165afa9283156107645792610730575b5051908152f35b9091508281813d831161075d575b6107488183610d70565b8101031261075857519083610729565b600080fd5b503d61073e565b8251903d90823e3d90fd5b919050346102f55760203660031901126102f5578261078c610ca4565b815483516313e9cd4f60e21b81526001600160a01b039283169581019590955284916024918391165afa9182156107fd57836107dc94936107e0575b505051918291602083526020830190610d21565b0390f35b6107f59293503d8091833e6105bc8183610d70565b9038806107c8565b81513d85823e3d90fd5b919050346102f55760203660031901126102f5576020610825610ca4565b84548351631ad3430d60e11b81526001600160a01b039283169581019590955284916024918391165afa9182156107fd5760209392610868575b50519015158152f35b610880919250833d8511610596576105888183610d70565b903861085f565b5050346100fe57816003193601126100fe5760025490516001600160a01b039091168152602090f35b919050346102f557826003193601126102f5576002548151631a07f9c360e21b81529260209184919082906001600160a01b03165afa9182156107fd57602093926108685750519015158152f35b919050346102f55760603660031901126102f55761091a610ca4565b91610923610cba565b604435928560018060a01b03938460015416803b156102f5578351630bc256c560e31b81526001600160a01b03808a169382019384528616602084015260408301889052918391839182908490829060600103925af1801561024d576109b8575b50505192835281169216907f1f956cf7ef20e22f475d005f9ab0094b04045c1f331ef8d2b443130e8466fada90602090a380f35b6109c490949294610d46565b6105f057918538610984565b8383346100fe57816003193601126100fe57600254815163949d225d60e01b81529360209185919082906001600160a01b03165afa918215610a515791610a1c575b6020925051908152f35b90506020823d602011610a49575b81610a3760209383610d70565b81010312610758576020915190610a12565b3d9150610a2a565b9051903d90823e3d90fd5b5050346100fe57816003193601126100fe5760015490516001600160a01b039091168152602090f35b919050346102f557806003193601126102f557610aa0610ca4565b9160243567ffffffffffffffff81116105f457610ac260209136908401610cd0565b8654855163087f9c4160e11b81526001600160a01b0397881695810186905260248101879052968793911691839189918391610b02916044840191610dc9565b03925af19283156106c55760209493610b49575b507f33ed15e8fcd8365f5a81d1fe56e10b62e5ade28375b3a08186eb59ebc2747db484835194151594858152a251908152f35b610b61919350843d8611610596576105888183610d70565b9138610b16565b5050346100fe57816003193601126100fe57905490516001600160a01b039091168152602090f35b919050346102f557826003193601126102f55760025481516359e02dd760e01b8152926001600160a01b0392916020918591829086165afa928315610bff5760209493610be0575b505191168152f35b610bf8919350843d86116106be576106ae8183610d70565b9138610bd8565b81513d86823e3d90fd5b849084346102f55760203660031901126102f557610c25610ca4565b6002546001600160a01b0390811691823b156105f057848680948294602494631b5abc2360e01b855216809a8401525af1908115610c9b5750610c8c575b50907ff9595bf37d0af8dda9d0e5ddcd18cb9a00e4cf93e445303fc1043ca41ffb338d8280a280f35b610c9590610d46565b82610c63565b513d84823e3d90fd5b600435906001600160a01b038216820361075857565b602435906001600160a01b038216820361075857565b9181601f840112156107585782359167ffffffffffffffff8311610758576020838186019501011161075857565b60005b838110610d115750506000910152565b8181015183820152602001610d01565b90602091610d3a81518092818552858086019101610cfe565b601f01601f1916010190565b67ffffffffffffffff8111610d5a57604052565b634e487b7160e01b600052604160045260246000fd5b90601f8019910116810190811067ffffffffffffffff821117610d5a57604052565b9081602091031261075857516001600160a01b03811681036107585790565b90816020910312610758575180151581036107585790565b908060209392818452848401376000828201840152601f01601f1916010190565b67ffffffffffffffff8111610d5a57601f01601f191660200190565b6020818303126107585780519067ffffffffffffffff8211610758570181601f82011215610758578051610e3981610dea565b92610e476040519485610d70565b8184526020828401011161075857610e659160208085019101610cfe565b9056fea2646970667358221220dae4eb6a5d51979515007d5a0ccf08566526173e7bf7133c23a9eb389410606464736f6c63430008180033","linkReferences":{}},"methodIdentifiers":{"createOffRampIntentAndSendETH(address,uint256)":"bf5dd70a","getAndRemoveOffRampersIntentFromQueue()":"a15adfd2","getUserEmail(address)":"9480e948","isOffRamperQueueEmpty()":"6fd4f3d7","loginUserAccount(address)":"8b3f3e6d","numberOfOpenOffRampIntents()":"58b1fca4","offRamperContract()":"558d112e","onRamp(uint256,address,string,string,uint256)":"b25c0564","onRamperContract()":"c397a121","peekOffRamperQueue()":"33ea25bd","peerFinderContract()":"78398841","queryEscrowBalance(address)":"9c7d9726","registerUserAccount(address,string)":"3d8d1601","registratorContract()":"3b6997b1","reinsertOffRampIntentAfterFailedOnRamp(address)":"1b5abc23","releasePartialFundsToOnRamper(address,address,uint256)":"5e12b628"},"id":24}